{
        "abi": [
                {
                        "type": "constructor",
                        "inputs": [],
                        "stateMutability": "nonpayable"
                },
                {
                        "type": "function",
                        "name": "approve",
                        "inputs": [
                                {
                                        "name": "to",
                                        "type": "address",
                                        "internalType": "address"
                                },
                                {
                                        "name": "tokenId",
                                        "type": "uint256",
                                        "internalType": "uint256"
                                }
                        ],
                        "outputs": [],
                        "stateMutability": "nonpayable"
                },
                {
                        "type": "function",
                        "name": "balanceOf",
                        "inputs": [
                                {
                                        "name": "owner",
                                        "type": "address",
                                        "internalType": "address"
                                }
                        ],
                        "outputs": [
                                {
                                        "name": "",
                                        "type": "uint256",
                                        "internalType": "uint256"
                                }
                        ],
                        "stateMutability": "view"
                },
                {
                        "type": "function",
                        "name": "banHero",
                        "inputs": [
                                {
                                        "name": "tokenId",
                                        "type": "uint256",
                                        "internalType": "uint256"
                                }
                        ],
                        "outputs": [],
                        "stateMutability": "nonpayable"
                },
                {
                        "type": "function",
                        "name": "getActiveHeroesByOwner",
                        "inputs": [
                                {
                                        "name": "owner",
                                        "type": "address",
                                        "internalType": "address"
                                }
                        ],
                        "outputs": [
                                {
                                        "name": "",
                                        "type": "uint256[]",
                                        "internalType": "uint256[]"
                                }
                        ],
                        "stateMutability": "view"
                },
                {
                        "type": "function",
                        "name": "getApproved",
                        "inputs": [
                                {
                                        "name": "tokenId",
                                        "type": "uint256",
                                        "internalType": "uint256"
                                }
                        ],
                        "outputs": [
                                {
                                        "name": "",
                                        "type": "address",
                                        "internalType": "address"
                                }
                        ],
                        "stateMutability": "view"
                },
                {
                        "type": "function",
                        "name": "getHeroBasicInfo",
                        "inputs": [
                                {
                                        "name": "tokenId",
                                        "type": "uint256",
                                        "internalType": "uint256"
                                }
                        ],
                        "outputs": [
                                {
                                        "name": "playerName",
                                        "type": "string",
                                        "internalType": "string"
                                },
                                {
                                        "name": "level",
                                        "type": "uint32",
                                        "internalType": "uint32"
                                },
                                {
                                        "name": "isBanned",
                                        "type": "bool",
                                        "internalType": "bool"
                                },
                                {
                                        "name": "raceName",
                                        "type": "string",
                                        "internalType": "string"
                                }
                        ],
                        "stateMutability": "view"
                },
                {
                        "type": "function",
                        "name": "getHeroCountByOwner",
                        "inputs": [
                                {
                                        "name": "owner",
                                        "type": "address",
                                        "internalType": "address"
                                }
                        ],
                        "outputs": [
                                {
                                        "name": "",
                                        "type": "uint256",
                                        "internalType": "uint256"
                                }
                        ],
                        "stateMutability": "view"
                },
                {
                        "type": "function",
                        "name": "getHeroData",
                        "inputs": [
                                {
                                        "name": "tokenId",
                                        "type": "uint256",
                                        "internalType": "uint256"
                                }
                        ],
                        "outputs": [
                                {
                                        "name": "",
                                        "type": "tuple",
                                        "internalType": "struct Hero.HeroData",
                                        "components": [
                                                {
                                                        "name": "playerName",
                                                        "type": "string",
                                                        "internalType": "string"
                                                },
                                                {
                                                        "name": "playerID",
                                                        "type": "string",
                                                        "internalType": "string"
                                                },
                                                {
                                                        "name": "level",
                                                        "type": "uint32",
                                                        "internalType": "uint32"
                                                },
                                                {
                                                        "name": "isBanned",
                                                        "type": "bool",
                                                        "internalType": "bool"
                                                },
                                                {
                                                        "name": "raceName",
                                                        "type": "string",
                                                        "internalType": "string"
                                                },
                                                {
                                                        "name": "equippedItems",
                                                        "type": "string[]",
                                                        "internalType": "string[]"
                                                },
                                                {
                                                        "name": "stats",
                                                        "type": "tuple",
                                                        "internalType": "struct Hero.Stats",
                                                        "components": [
                                                                {
                                                                        "name": "offensiveStats",
                                                                        "type": "tuple",
                                                                        "internalType": "struct Hero.OffensiveStats",
                                                                        "components": [
                                                                                {
                                                                                        "name": "damage",
                                                                                        "type": "uint32",
                                                                                        "internalType": "uint32"
                                                                                },
                                                                                {
                                                                                        "name": "attackSpeed",
                                                                                        "type": "uint32",
                                                                                        "internalType": "uint32"
                                                                                },
                                                                                {
                                                                                        "name": "criticalRate",
                                                                                        "type": "uint32",
                                                                                        "internalType": "uint32"
                                                                                },
                                                                                {
                                                                                        "name": "criticalDamage",
                                                                                        "type": "uint32",
                                                                                        "internalType": "uint32"
                                                                                }
                                                                        ]
                                                                },
                                                                {
                                                                        "name": "defensiveStats",
                                                                        "type": "tuple",
                                                                        "internalType": "struct Hero.DefensiveStats",
                                                                        "components": [
                                                                                {
                                                                                        "name": "maxHealth",
                                                                                        "type": "uint32",
                                                                                        "internalType": "uint32"
                                                                                },
                                                                                {
                                                                                        "name": "defense",
                                                                                        "type": "uint32",
                                                                                        "internalType": "uint32"
                                                                                },
                                                                                {
                                                                                        "name": "healthRegeneration",
                                                                                        "type": "uint32",
                                                                                        "internalType": "uint32"
                                                                                },
                                                                                {
                                                                                        "name": "resistances",
                                                                                        "type": "uint32[]",
                                                                                        "internalType": "uint32[]"
                                                                                }
                                                                        ]
                                                                },
                                                                {
                                                                        "name": "specialStats",
                                                                        "type": "tuple",
                                                                        "internalType": "struct Hero.SpecialStats",
                                                                        "components": [
                                                                                {
                                                                                        "name": "maxEnergy",
                                                                                        "type": "uint32",
                                                                                        "internalType": "uint32"
                                                                                },
                                                                                {
                                                                                        "name": "energyRegeneration",
                                                                                        "type": "uint32",
                                                                                        "internalType": "uint32"
                                                                                },
                                                                                {
                                                                                        "name": "maxMana",
                                                                                        "type": "uint32",
                                                                                        "internalType": "uint32"
                                                                                },
                                                                                {
                                                                                        "name": "manaRegeneration",
                                                                                        "type": "uint32",
                                                                                        "internalType": "uint32"
                                                                                }
                                                                        ]
                                                                },
                                                                {
                                                                        "name": "statPointsAssigned",
                                                                        "type": "tuple",
                                                                        "internalType": "struct Hero.StatPointsAssigned",
                                                                        "components": [
                                                                                {
                                                                                        "name": "constitution",
                                                                                        "type": "uint32",
                                                                                        "internalType": "uint32"
                                                                                },
                                                                                {
                                                                                        "name": "strength",
                                                                                        "type": "uint32",
                                                                                        "internalType": "uint32"
                                                                                },
                                                                                {
                                                                                        "name": "dexterity",
                                                                                        "type": "uint32",
                                                                                        "internalType": "uint32"
                                                                                },
                                                                                {
                                                                                        "name": "intelligence",
                                                                                        "type": "uint32",
                                                                                        "internalType": "uint32"
                                                                                },
                                                                                {
                                                                                        "name": "stamina",
                                                                                        "type": "uint32",
                                                                                        "internalType": "uint32"
                                                                                },
                                                                                {
                                                                                        "name": "agility",
                                                                                        "type": "uint32",
                                                                                        "internalType": "uint32"
                                                                                },
                                                                                {
                                                                                        "name": "remainingPoints",
                                                                                        "type": "uint32",
                                                                                        "internalType": "uint32"
                                                                                }
                                                                        ]
                                                                }
                                                        ]
                                                }
                                        ]
                                }
                        ],
                        "stateMutability": "view"
                },
                {
                        "type": "function",
                        "name": "getHeroDefensiveStats",
                        "inputs": [
                                {
                                        "name": "tokenId",
                                        "type": "uint256",
                                        "internalType": "uint256"
                                }
                        ],
                        "outputs": [
                                {
                                        "name": "maxHealth",
                                        "type": "uint32",
                                        "internalType": "uint32"
                                },
                                {
                                        "name": "defense",
                                        "type": "uint32",
                                        "internalType": "uint32"
                                },
                                {
                                        "name": "healthRegeneration",
                                        "type": "uint32",
                                        "internalType": "uint32"
                                },
                                {
                                        "name": "resistances",
                                        "type": "uint32[]",
                                        "internalType": "uint32[]"
                                }
                        ],
                        "stateMutability": "view"
                },
                {
                        "type": "function",
                        "name": "getHeroEquippedItems",
                        "inputs": [
                                {
                                        "name": "tokenId",
                                        "type": "uint256",
                                        "internalType": "uint256"
                                }
                        ],
                        "outputs": [
                                {
                                        "name": "",
                                        "type": "string[]",
                                        "internalType": "string[]"
                                }
                        ],
                        "stateMutability": "view"
                },
                {
                        "type": "function",
                        "name": "getHeroOffensiveStats",
                        "inputs": [
                                {
                                        "name": "tokenId",
                                        "type": "uint256",
                                        "internalType": "uint256"
                                }
                        ],
                        "outputs": [
                                {
                                        "name": "damage",
                                        "type": "uint32",
                                        "internalType": "uint32"
                                },
                                {
                                        "name": "attackSpeed",
                                        "type": "uint32",
                                        "internalType": "uint32"
                                },
                                {
                                        "name": "criticalRate",
                                        "type": "uint32",
                                        "internalType": "uint32"
                                },
                                {
                                        "name": "criticalDamage",
                                        "type": "uint32",
                                        "internalType": "uint32"
                                }
                        ],
                        "stateMutability": "view"
                },
                {
                        "type": "function",
                        "name": "getHeroSpecialStats",
                        "inputs": [
                                {
                                        "name": "tokenId",
                                        "type": "uint256",
                                        "internalType": "uint256"
                                }
                        ],
                        "outputs": [
                                {
                                        "name": "maxEnergy",
                                        "type": "uint32",
                                        "internalType": "uint32"
                                },
                                {
                                        "name": "energyRegeneration",
                                        "type": "uint32",
                                        "internalType": "uint32"
                                },
                                {
                                        "name": "maxMana",
                                        "type": "uint32",
                                        "internalType": "uint32"
                                },
                                {
                                        "name": "manaRegeneration",
                                        "type": "uint32",
                                        "internalType": "uint32"
                                }
                        ],
                        "stateMutability": "view"
                },
                {
                        "type": "function",
                        "name": "getHeroStatPoints",
                        "inputs": [
                                {
                                        "name": "tokenId",
                                        "type": "uint256",
                                        "internalType": "uint256"
                                }
                        ],
                        "outputs": [
                                {
                                        "name": "constitution",
                                        "type": "uint32",
                                        "internalType": "uint32"
                                },
                                {
                                        "name": "strength",
                                        "type": "uint32",
                                        "internalType": "uint32"
                                },
                                {
                                        "name": "dexterity",
                                        "type": "uint32",
                                        "internalType": "uint32"
                                },
                                {
                                        "name": "intelligence",
                                        "type": "uint32",
                                        "internalType": "uint32"
                                },
                                {
                                        "name": "stamina",
                                        "type": "uint32",
                                        "internalType": "uint32"
                                },
                                {
                                        "name": "agility",
                                        "type": "uint32",
                                        "internalType": "uint32"
                                },
                                {
                                        "name": "remainingPoints",
                                        "type": "uint32",
                                        "internalType": "uint32"
                                }
                        ],
                        "stateMutability": "view"
                },
                {
                        "type": "function",
                        "name": "getHeroesByOwner",
                        "inputs": [
                                {
                                        "name": "owner",
                                        "type": "address",
                                        "internalType": "address"
                                }
                        ],
                        "outputs": [
                                {
                                        "name": "",
                                        "type": "uint256[]",
                                        "internalType": "uint256[]"
                                }
                        ],
                        "stateMutability": "view"
                },
                {
                        "type": "function",
                        "name": "getMultipleHeroesBasicInfo",
                        "inputs": [
                                {
                                        "name": "tokenIds",
                                        "type": "uint256[]",
                                        "internalType": "uint256[]"
                                }
                        ],
                        "outputs": [
                                {
                                        "name": "playerNames",
                                        "type": "string[]",
                                        "internalType": "string[]"
                                },
                                {
                                        "name": "levels",
                                        "type": "uint32[]",
                                        "internalType": "uint32[]"
                                },
                                {
                                        "name": "bannedStatus",
                                        "type": "bool[]",
                                        "internalType": "bool[]"
                                },
                                {
                                        "name": "raceNames",
                                        "type": "string[]",
                                        "internalType": "string[]"
                                }
                        ],
                        "stateMutability": "view"
                },
                {
                        "type": "function",
                        "name": "heroData",
                        "inputs": [
                                {
                                        "name": "",
                                        "type": "uint256",
                                        "internalType": "uint256"
                                }
                        ],
                        "outputs": [
                                {
                                        "name": "playerName",
                                        "type": "string",
                                        "internalType": "string"
                                },
                                {
                                        "name": "playerID",
                                        "type": "string",
                                        "internalType": "string"
                                },
                                {
                                        "name": "level",
                                        "type": "uint32",
                                        "internalType": "uint32"
                                },
                                {
                                        "name": "isBanned",
                                        "type": "bool",
                                        "internalType": "bool"
                                },
                                {
                                        "name": "raceName",
                                        "type": "string",
                                        "internalType": "string"
                                },
                                {
                                        "name": "stats",
                                        "type": "tuple",
                                        "internalType": "struct Hero.Stats",
                                        "components": [
                                                {
                                                        "name": "offensiveStats",
                                                        "type": "tuple",
                                                        "internalType": "struct Hero.OffensiveStats",
                                                        "components": [
                                                                {
                                                                        "name": "damage",
                                                                        "type": "uint32",
                                                                        "internalType": "uint32"
                                                                },
                                                                {
                                                                        "name": "attackSpeed",
                                                                        "type": "uint32",
                                                                        "internalType": "uint32"
                                                                },
                                                                {
                                                                        "name": "criticalRate",
                                                                        "type": "uint32",
                                                                        "internalType": "uint32"
                                                                },
                                                                {
                                                                        "name": "criticalDamage",
                                                                        "type": "uint32",
                                                                        "internalType": "uint32"
                                                                }
                                                        ]
                                                },
                                                {
                                                        "name": "defensiveStats",
                                                        "type": "tuple",
                                                        "internalType": "struct Hero.DefensiveStats",
                                                        "components": [
                                                                {
                                                                        "name": "maxHealth",
                                                                        "type": "uint32",
                                                                        "internalType": "uint32"
                                                                },
                                                                {
                                                                        "name": "defense",
                                                                        "type": "uint32",
                                                                        "internalType": "uint32"
                                                                },
                                                                {
                                                                        "name": "healthRegeneration",
                                                                        "type": "uint32",
                                                                        "internalType": "uint32"
                                                                },
                                                                {
                                                                        "name": "resistances",
                                                                        "type": "uint32[]",
                                                                        "internalType": "uint32[]"
                                                                }
                                                        ]
                                                },
                                                {
                                                        "name": "specialStats",
                                                        "type": "tuple",
                                                        "internalType": "struct Hero.SpecialStats",
                                                        "components": [
                                                                {
                                                                        "name": "maxEnergy",
                                                                        "type": "uint32",
                                                                        "internalType": "uint32"
                                                                },
                                                                {
                                                                        "name": "energyRegeneration",
                                                                        "type": "uint32",
                                                                        "internalType": "uint32"
                                                                },
                                                                {
                                                                        "name": "maxMana",
                                                                        "type": "uint32",
                                                                        "internalType": "uint32"
                                                                },
                                                                {
                                                                        "name": "manaRegeneration",
                                                                        "type": "uint32",
                                                                        "internalType": "uint32"
                                                                }
                                                        ]
                                                },
                                                {
                                                        "name": "statPointsAssigned",
                                                        "type": "tuple",
                                                        "internalType": "struct Hero.StatPointsAssigned",
                                                        "components": [
                                                                {
                                                                        "name": "constitution",
                                                                        "type": "uint32",
                                                                        "internalType": "uint32"
                                                                },
                                                                {
                                                                        "name": "strength",
                                                                        "type": "uint32",
                                                                        "internalType": "uint32"
                                                                },
                                                                {
                                                                        "name": "dexterity",
                                                                        "type": "uint32",
                                                                        "internalType": "uint32"
                                                                },
                                                                {
                                                                        "name": "intelligence",
                                                                        "type": "uint32",
                                                                        "internalType": "uint32"
                                                                },
                                                                {
                                                                        "name": "stamina",
                                                                        "type": "uint32",
                                                                        "internalType": "uint32"
                                                                },
                                                                {
                                                                        "name": "agility",
                                                                        "type": "uint32",
                                                                        "internalType": "uint32"
                                                                },
                                                                {
                                                                        "name": "remainingPoints",
                                                                        "type": "uint32",
                                                                        "internalType": "uint32"
                                                                }
                                                        ]
                                                }
                                        ]
                                }
                        ],
                        "stateMutability": "view"
                },
                {
                        "type": "function",
                        "name": "heroExists",
                        "inputs": [
                                {
                                        "name": "tokenId",
                                        "type": "uint256",
                                        "internalType": "uint256"
                                }
                        ],
                        "outputs": [
                                {
                                        "name": "",
                                        "type": "bool",
                                        "internalType": "bool"
                                }
                        ],
                        "stateMutability": "view"
                },
                {
                        "type": "function",
                        "name": "isApprovedForAll",
                        "inputs": [
                                {
                                        "name": "owner",
                                        "type": "address",
                                        "internalType": "address"
                                },
                                {
                                        "name": "operator",
                                        "type": "address",
                                        "internalType": "address"
                                }
                        ],
                        "outputs": [
                                {
                                        "name": "",
                                        "type": "bool",
                                        "internalType": "bool"
                                }
                        ],
                        "stateMutability": "view"
                },
                {
                        "type": "function",
                        "name": "mintHero",
                        "inputs": [
                                {
                                        "name": "_playerName",
                                        "type": "string",
                                        "internalType": "string"
                                },
                                {
                                        "name": "_owner",
                                        "type": "address",
                                        "internalType": "address"
                                },
                                {
                                        "name": "_playerID",
                                        "type": "string",
                                        "internalType": "string"
                                },
                                {
                                        "name": "_raceName",
                                        "type": "string",
                                        "internalType": "string"
                                },
                                {
                                        "name": "_resistances",
                                        "type": "uint32[]",
                                        "internalType": "uint32[]"
                                },
                                {
                                        "name": "_tokenURI",
                                        "type": "string",
                                        "internalType": "string"
                                }
                        ],
                        "outputs": [],
                        "stateMutability": "nonpayable"
                },
                {
                        "type": "function",
                        "name": "name",
                        "inputs": [],
                        "outputs": [
                                {
                                        "name": "",
                                        "type": "string",
                                        "internalType": "string"
                                }
                        ],
                        "stateMutability": "view"
                },
                {
                        "type": "function",
                        "name": "owner",
                        "inputs": [],
                        "outputs": [
                                {
                                        "name": "",
                                        "type": "address",
                                        "internalType": "address"
                                }
                        ],
                        "stateMutability": "view"
                },
                {
                        "type": "function",
                        "name": "ownerOf",
                        "inputs": [
                                {
                                        "name": "tokenId",
                                        "type": "uint256",
                                        "internalType": "uint256"
                                }
                        ],
                        "outputs": [
                                {
                                        "name": "",
                                        "type": "address",
                                        "internalType": "address"
                                }
                        ],
                        "stateMutability": "view"
                },
                {
                        "type": "function",
                        "name": "renounceOwnership",
                        "inputs": [],
                        "outputs": [],
                        "stateMutability": "nonpayable"
                },
                {
                        "type": "function",
                        "name": "safeTransferFrom",
                        "inputs": [
                                {
                                        "name": "from",
                                        "type": "address",
                                        "internalType": "address"
                                },
                                {
                                        "name": "to",
                                        "type": "address",
                                        "internalType": "address"
                                },
                                {
                                        "name": "tokenId",
                                        "type": "uint256",
                                        "internalType": "uint256"
                                }
                        ],
                        "outputs": [],
                        "stateMutability": "nonpayable"
                },
                {
                        "type": "function",
                        "name": "safeTransferFrom",
                        "inputs": [
                                {
                                        "name": "from",
                                        "type": "address",
                                        "internalType": "address"
                                },
                                {
                                        "name": "to",
                                        "type": "address",
                                        "internalType": "address"
                                },
                                {
                                        "name": "tokenId",
                                        "type": "uint256",
                                        "internalType": "uint256"
                                },
                                {
                                        "name": "data",
                                        "type": "bytes",
                                        "internalType": "bytes"
                                }
                        ],
                        "outputs": [],
                        "stateMutability": "nonpayable"
                },
                {
                        "type": "function",
                        "name": "setApprovalForAll",
                        "inputs": [
                                {
                                        "name": "operator",
                                        "type": "address",
                                        "internalType": "address"
                                },
                                {
                                        "name": "approved",
                                        "type": "bool",
                                        "internalType": "bool"
                                }
                        ],
                        "outputs": [],
                        "stateMutability": "nonpayable"
                },
                {
                        "type": "function",
                        "name": "supportsInterface",
                        "inputs": [
                                {
                                        "name": "interfaceId",
                                        "type": "bytes4",
                                        "internalType": "bytes4"
                                }
                        ],
                        "outputs": [
                                {
                                        "name": "",
                                        "type": "bool",
                                        "internalType": "bool"
                                }
                        ],
                        "stateMutability": "view"
                },
                {
                        "type": "function",
                        "name": "symbol",
                        "inputs": [],
                        "outputs": [
                                {
                                        "name": "",
                                        "type": "string",
                                        "internalType": "string"
                                }
                        ],
                        "stateMutability": "view"
                },
                {
                        "type": "function",
                        "name": "tokenCounter",
                        "inputs": [],
                        "outputs": [
                                {
                                        "name": "",
                                        "type": "uint64",
                                        "internalType": "uint64"
                                }
                        ],
                        "stateMutability": "view"
                },
                {
                        "type": "function",
                        "name": "tokenURI",
                        "inputs": [
                                {
                                        "name": "tokenId",
                                        "type": "uint256",
                                        "internalType": "uint256"
                                }
                        ],
                        "outputs": [
                                {
                                        "name": "",
                                        "type": "string",
                                        "internalType": "string"
                                }
                        ],
                        "stateMutability": "view"
                },
                {
                        "type": "function",
                        "name": "transferFrom",
                        "inputs": [
                                {
                                        "name": "from",
                                        "type": "address",
                                        "internalType": "address"
                                },
                                {
                                        "name": "to",
                                        "type": "address",
                                        "internalType": "address"
                                },
                                {
                                        "name": "tokenId",
                                        "type": "uint256",
                                        "internalType": "uint256"
                                }
                        ],
                        "outputs": [],
                        "stateMutability": "nonpayable"
                },
                {
                        "type": "function",
                        "name": "transferOwnership",
                        "inputs": [
                                {
                                        "name": "newOwner",
                                        "type": "address",
                                        "internalType": "address"
                                }
                        ],
                        "outputs": [],
                        "stateMutability": "nonpayable"
                },
                {
                        "type": "function",
                        "name": "unbanHero",
                        "inputs": [
                                {
                                        "name": "tokenId",
                                        "type": "uint256",
                                        "internalType": "uint256"
                                }
                        ],
                        "outputs": [],
                        "stateMutability": "nonpayable"
                },
                {
                        "type": "function",
                        "name": "updateHeroItems",
                        "inputs": [
                                {
                                        "name": "tokenId",
                                        "type": "uint256",
                                        "internalType": "uint256"
                                },
                                {
                                        "name": "newEquippedItems",
                                        "type": "string[]",
                                        "internalType": "string[]"
                                }
                        ],
                        "outputs": [],
                        "stateMutability": "nonpayable"
                },
                {
                        "type": "function",
                        "name": "updateHeroMainStats",
                        "inputs": [
                                {
                                        "name": "tokenId",
                                        "type": "uint256",
                                        "internalType": "uint256"
                                },
                                {
                                        "name": "constitution",
                                        "type": "uint32",
                                        "internalType": "uint32"
                                },
                                {
                                        "name": "strength",
                                        "type": "uint32",
                                        "internalType": "uint32"
                                },
                                {
                                        "name": "dexterity",
                                        "type": "uint32",
                                        "internalType": "uint32"
                                },
                                {
                                        "name": "intelligence",
                                        "type": "uint32",
                                        "internalType": "uint32"
                                },
                                {
                                        "name": "stamina",
                                        "type": "uint32",
                                        "internalType": "uint32"
                                },
                                {
                                        "name": "agility",
                                        "type": "uint32",
                                        "internalType": "uint32"
                                },
                                {
                                        "name": "remainingPoints",
                                        "type": "uint32",
                                        "internalType": "uint32"
                                }
                        ],
                        "outputs": [],
                        "stateMutability": "nonpayable"
                },
                {
                        "type": "function",
                        "name": "updateHeroStats",
                        "inputs": [
                                {
                                        "name": "tokenId",
                                        "type": "uint256",
                                        "internalType": "uint256"
                                },
                                {
                                        "name": "newLevel",
                                        "type": "uint32",
                                        "internalType": "uint32"
                                },
                                {
                                        "name": "damage",
                                        "type": "uint32",
                                        "internalType": "uint32"
                                },
                                {
                                        "name": "attackSpeed",
                                        "type": "uint32",
                                        "internalType": "uint32"
                                },
                                {
                                        "name": "criticalRate",
                                        "type": "uint32",
                                        "internalType": "uint32"
                                },
                                {
                                        "name": "criticalDamage",
                                        "type": "uint32",
                                        "internalType": "uint32"
                                },
                                {
                                        "name": "maxHealth",
                                        "type": "uint32",
                                        "internalType": "uint32"
                                },
                                {
                                        "name": "defense",
                                        "type": "uint32",
                                        "internalType": "uint32"
                                },
                                {
                                        "name": "healthRegen",
                                        "type": "uint32",
                                        "internalType": "uint32"
                                },
                                {
                                        "name": "resistances",
                                        "type": "uint32[]",
                                        "internalType": "uint32[]"
                                },
                                {
                                        "name": "maxEnergy",
                                        "type": "uint32",
                                        "internalType": "uint32"
                                },
                                {
                                        "name": "energyRegen",
                                        "type": "uint32",
                                        "internalType": "uint32"
                                },
                                {
                                        "name": "maxMana",
                                        "type": "uint32",
                                        "internalType": "uint32"
                                },
                                {
                                        "name": "manaRegen",
                                        "type": "uint32",
                                        "internalType": "uint32"
                                }
                        ],
                        "outputs": [],
                        "stateMutability": "nonpayable"
                },
                {
                        "type": "event",
                        "name": "Approval",
                        "inputs": [
                                {
                                        "name": "owner",
                                        "type": "address",
                                        "indexed": true,
                                        "internalType": "address"
                                },
                                {
                                        "name": "approved",
                                        "type": "address",
                                        "indexed": true,
                                        "internalType": "address"
                                },
                                {
                                        "name": "tokenId",
                                        "type": "uint256",
                                        "indexed": true,
                                        "internalType": "uint256"
                                }
                        ],
                        "anonymous": false
                },
                {
                        "type": "event",
                        "name": "ApprovalForAll",
                        "inputs": [
                                {
                                        "name": "owner",
                                        "type": "address",
                                        "indexed": true,
                                        "internalType": "address"
                                },
                                {
                                        "name": "operator",
                                        "type": "address",
                                        "indexed": true,
                                        "internalType": "address"
                                },
                                {
                                        "name": "approved",
                                        "type": "bool",
                                        "indexed": false,
                                        "internalType": "bool"
                                }
                        ],
                        "anonymous": false
                },
                {
                        "type": "event",
                        "name": "BatchMetadataUpdate",
                        "inputs": [
                                {
                                        "name": "_fromTokenId",
                                        "type": "uint256",
                                        "indexed": false,
                                        "internalType": "uint256"
                                },
                                {
                                        "name": "_toTokenId",
                                        "type": "uint256",
                                        "indexed": false,
                                        "internalType": "uint256"
                                }
                        ],
                        "anonymous": false
                },
                {
                        "type": "event",
                        "name": "HeroBanned",
                        "inputs": [
                                {
                                        "name": "tokenId",
                                        "type": "uint256",
                                        "indexed": true,
                                        "internalType": "uint256"
                                }
                        ],
                        "anonymous": false
                },
                {
                        "type": "event",
                        "name": "HeroItemsUpdated",
                        "inputs": [
                                {
                                        "name": "tokenId",
                                        "type": "uint256",
                                        "indexed": true,
                                        "internalType": "uint256"
                                }
                        ],
                        "anonymous": false
                },
                {
                        "type": "event",
                        "name": "HeroMinted",
                        "inputs": [
                                {
                                        "name": "tokenId",
                                        "type": "uint256",
                                        "indexed": true,
                                        "internalType": "uint256"
                                },
                                {
                                        "name": "owner",
                                        "type": "address",
                                        "indexed": true,
                                        "internalType": "address"
                                },
                                {
                                        "name": "playerName",
                                        "type": "string",
                                        "indexed": false,
                                        "internalType": "string"
                                }
                        ],
                        "anonymous": false
                },
                {
                        "type": "event",
                        "name": "HeroStatsUpdated",
                        "inputs": [
                                {
                                        "name": "tokenId",
                                        "type": "uint256",
                                        "indexed": true,
                                        "internalType": "uint256"
                                },
                                {
                                        "name": "newLevel",
                                        "type": "uint32",
                                        "indexed": false,
                                        "internalType": "uint32"
                                }
                        ],
                        "anonymous": false
                },
                {
                        "type": "event",
                        "name": "HeroUnbanned",
                        "inputs": [
                                {
                                        "name": "tokenId",
                                        "type": "uint256",
                                        "indexed": true,
                                        "internalType": "uint256"
                                }
                        ],
                        "anonymous": false
                },
                {
                        "type": "event",
                        "name": "MetadataUpdate",
                        "inputs": [
                                {
                                        "name": "_tokenId",
                                        "type": "uint256",
                                        "indexed": false,
                                        "internalType": "uint256"
                                }
                        ],
                        "anonymous": false
                },
                {
                        "type": "event",
                        "name": "OwnershipTransferred",
                        "inputs": [
                                {
                                        "name": "previousOwner",
                                        "type": "address",
                                        "indexed": true,
                                        "internalType": "address"
                                },
                                {
                                        "name": "newOwner",
                                        "type": "address",
                                        "indexed": true,
                                        "internalType": "address"
                                }
                        ],
                        "anonymous": false
                },
                {
                        "type": "event",
                        "name": "Transfer",
                        "inputs": [
                                {
                                        "name": "from",
                                        "type": "address",
                                        "indexed": true,
                                        "internalType": "address"
                                },
                                {
                                        "name": "to",
                                        "type": "address",
                                        "indexed": true,
                                        "internalType": "address"
                                },
                                {
                                        "name": "tokenId",
                                        "type": "uint256",
                                        "indexed": true,
                                        "internalType": "uint256"
                                }
                        ],
                        "anonymous": false
                },
                {
                        "type": "error",
                        "name": "ERC721IncorrectOwner",
                        "inputs": [
                                {
                                        "name": "sender",
                                        "type": "address",
                                        "internalType": "address"
                                },
                                {
                                        "name": "tokenId",
                                        "type": "uint256",
                                        "internalType": "uint256"
                                },
                                {
                                        "name": "owner",
                                        "type": "address",
                                        "internalType": "address"
                                }
                        ]
                },
                {
                        "type": "error",
                        "name": "ERC721InsufficientApproval",
                        "inputs": [
                                {
                                        "name": "operator",
                                        "type": "address",
                                        "internalType": "address"
                                },
                                {
                                        "name": "tokenId",
                                        "type": "uint256",
                                        "internalType": "uint256"
                                }
                        ]
                },
                {
                        "type": "error",
                        "name": "ERC721InvalidApprover",
                        "inputs": [
                                {
                                        "name": "approver",
                                        "type": "address",
                                        "internalType": "address"
                                }
                        ]
                },
                {
                        "type": "error",
                        "name": "ERC721InvalidOperator",
                        "inputs": [
                                {
                                        "name": "operator",
                                        "type": "address",
                                        "internalType": "address"
                                }
                        ]
                },
                {
                        "type": "error",
                        "name": "ERC721InvalidOwner",
                        "inputs": [
                                {
                                        "name": "owner",
                                        "type": "address",
                                        "internalType": "address"
                                }
                        ]
                },
                {
                        "type": "error",
                        "name": "ERC721InvalidReceiver",
                        "inputs": [
                                {
                                        "name": "receiver",
                                        "type": "address",
                                        "internalType": "address"
                                }
                        ]
                },
                {
                        "type": "error",
                        "name": "ERC721InvalidSender",
                        "inputs": [
                                {
                                        "name": "sender",
                                        "type": "address",
                                        "internalType": "address"
                                }
                        ]
                },
                {
                        "type": "error",
                        "name": "ERC721NonexistentToken",
                        "inputs": [
                                {
                                        "name": "tokenId",
                                        "type": "uint256",
                                        "internalType": "uint256"
                                }
                        ]
                },
                {
                        "type": "error",
                        "name": "OwnableInvalidOwner",
                        "inputs": [
                                {
                                        "name": "owner",
                                        "type": "address",
                                        "internalType": "address"
                                }
                        ]
                },
                {
                        "type": "error",
                        "name": "OwnableUnauthorizedAccount",
                        "inputs": [
                                {
                                        "name": "account",
                                        "type": "address",
                                        "internalType": "address"
                                }
                        ]
                }
        ],
        "bytecode": {
                "object": "0x60806040523461034157610011610345565b634865726f60e01b6020820152610026610345565b634845524f60e01b602082015281516001600160401b038111610257575f54600181811c91168015610337575b602082101461023957601f81116102d5575b50602092601f821160011461027657928192935f9261026b575b50508160011b915f199060031b1c1916175f555b80516001600160401b03811161025757600154600181811c9116801561024d575b602082101461023957601f81116101d6575b50602091601f8211600114610176579181925f9261016b575b50508160011b915f199060031b1c1916176001555b33156101585760075460405190336001600160a01b0382167f8be0079c531659141344cd1fd0a4f28419497f9722a3daafe3b4186f6b6457e05f80a36001600160e01b03191633600160a01b600160e01b0319161760075561354e90816103698239f35b631e4fbdf760e01b5f525f60045260245ffd5b015190505f806100df565b601f1982169260015f52805f20915f5b8581106101be575083600195106101a6575b505050811b016001556100f4565b01515f1960f88460031b161c191690555f8080610198565b91926020600181928685015181550194019201610186565b60015f527fb10e2d527612073b26eecdfd717e6a320cf44b4afac2b0732d9fcbe2b7fa0cf6601f830160051c8101916020841061022f575b601f0160051c01905b81811061022457506100c6565b5f8155600101610217565b909150819061020e565b634e487b7160e01b5f52602260045260245ffd5b90607f16906100b4565b634e487b7160e01b5f52604160045260245ffd5b015190505f8061007f565b601f198216935f8052805f20915f5b8681106102bd57508360019596106102a5575b505050811b015f55610093565b01515f1960f88460031b161c191690555f8080610298565b91926020600181928685015181550194019201610285565b5f80527f290decd9548b62a8d60345a988386fc84ba6bc95484008f6362f93160ef3e563601f830160051c8101916020841061032d575b601f0160051c01905b8181106103225750610065565b5f8155600101610315565b909150819061030c565b90607f1690610053565b5f80fd5b60408051919082016001600160401b03811183821017610257576040526004825256fe6080806040526004361015610012575f80fd5b5f3560e01c90816301ffc9a7146124fe5750806306fdde031461245c57806307c99f4e14612438578063081812fc146123fc578063095ea7b31461231257806323b872dd146122fb5780632d1bf7c51461225f5780633d6b6b811461221e57806341441b02146121c157806342842e0e146121985780636352211e1461216857806370a08231146108f1578063715018a61461210d57806373b311901461205557806377bda499146120255780637f49fa5314611fcf5780637fbe7b4f14611d86578063822cb6a414611d2257806387e6e4c214611c445780638b8f6e2c14610fdd5780638da5cb5b14610fb557806395d89b4114610eeb5780639e94af5a14610cff578063a22cb46514610c64578063a7471c7c146109bb578063a95a399114610991578063aec253f21461091c578063b6d06389146108f1578063b7e5b19c14610889578063b88d4fde14610828578063b9a178b514610687578063c87b56dd14610650578063d082e38114610627578063e985e9c5146105d0578063f1e17d28146102325763f2fde38b146101a8575f80fd5b3461022e57602036600319011261022e576101c16125a7565b6101c96134c1565b6001600160a01b0316801561021b57600780546001600160a01b0319811683179091556001600160a01b03167f8be0079c531659141344cd1fd0a4f28419497f9722a3daafe3b4186f6b6457e05f80a3005b631e4fbdf760e01b5f525f60045260245ffd5b5f80fd5b3461022e576101c036600319011261022e5760043561024f612c7e565b90610258612c91565b91610261612ca4565b610269612cb7565b90610272612cca565b9161027b612cdd565b92610284612cf0565b96610104359763ffffffff891680990361022e57610124356001600160401b03811161022e576102b8903690600401612d03565b98610144359663ffffffff881680980361022e57610164359363ffffffff851680950361022e57610184359563ffffffff871680970361022e576101a4359763ffffffff891680990361022e5761030e8d61348d565b610322906001600160a01b03163314613309565b8c5f52600860205260405f20998c60028c019063ffffffff1663ffffffff1982541617905560405193610354856126f1565b63ffffffff16845263ffffffff16602084015263ffffffff16604083015263ffffffff166060820152600588019061038b91613278565b8a60405191610399836126f1565b63ffffffff169384835263ffffffff169182602082015283604082015260600152600687019263ffffffff1663ffffffff198454161783556103f690839063ffffffff60201b82549160201b169063ffffffff60201b1916179055565b815463ffffffff60401b191660409190911b63ffffffff60401b16179055875160078501986001600160401b0382116105bc57600160401b82116105bc576020908a54838c55808410610567575b5001985f5260205f208160031c915f5b838110610519575060071981169003806104ca575b897fb861e7b40c3c286d77a3d039c4d814b9fdbbeb6d6ec16258198dd25a076d9d3c60208b6104bb8c60088d8d8d8d604051956104a5876126f1565b8652888601526040850152606084015201613278565b63ffffffff60405191168152a2005b995f9a5f5b8181106104ed575050500197909755949586959082826104bb610469565b825163ffffffff908116600583901b90811b91901b19909d169c909c179b6020909201916001016104cf565b5f5f5b60088110610531575083820155600101610454565b9c90602061055e8f60019363ffffffff8651169160021b63ffffffff809160031b9316831b921b19161790565b92019d0161051c565b610595908c5f52835f20600780870160031c820192601c8860021b168061059b575b500160031c0190613262565b8b610444565b6105b6905f198601908154905f199060200360031b1c169055565b5f610589565b634e487b7160e01b5f52604160045260245ffd5b3461022e57604036600319011261022e576105e96125a7565b6105f16125bd565b9060018060a01b03165f52600560205260405f209060018060a01b03165f52602052602060ff60405f2054166040519015158152f35b3461022e575f36600319011261022e5760206001600160401b0360075460a01c16604051908152f35b3461022e57602036600319011261022e5761068361066f6004356134e8565b604051918291602083526020830190612583565b0390f35b3461022e5761010036600319011261022e576004356107e6816106a8612c7e565b6107c36106b3612c91565b6107a36106be612ca4565b6107836106c9612cb7565b6107636106d4612cca565b936107436106e0612cdd565b976107056106f56106ef612cf0565b9d61348d565b6001600160a01b03163314613309565b5f8e8152600860209081526040909120600901805467ffffffffffffffff191663ffffffff9d909d169c909c1791901b63ffffffff60201b16178a55565b885463ffffffff60401b191660409190911b63ffffffff60401b16178855565b865463ffffffff60601b191660609190911b63ffffffff60601b16178655565b845463ffffffff60801b191660809190911b63ffffffff60801b16178455565b825463ffffffff60a01b191660a09190911b63ffffffff60a01b16178255565b805463ffffffff60c01b191660c09290921b63ffffffff60c01b16919091179055565b805f5260086020527fb861e7b40c3c286d77a3d039c4d814b9fdbbeb6d6ec16258198dd25a076d9d3c602063ffffffff600260405f20015416604051908152a2005b3461022e57608036600319011261022e576108416125a7565b6108496125bd565b606435916001600160401b03831161022e573660238401121561022e5761087d610887933690602481600401359101612c2a565b916044359161334d565b005b3461022e57602036600319011261022e576004355f5260086020526108b3600560405f20016127cd565b8051602080830151604080850151606095860151825163ffffffff968716815293861694840194909452841690820152911691810191909152608090f35b3461022e57602036600319011261022e57602061091461090f6125a7565b613074565b604051908152f35b3461022e57602036600319011261022e576004355f526008602052610946600660405f2001612807565b63ffffffff81511661068363ffffffff60208401511692606063ffffffff60408301511691015190604051948594855260208501526040840152608060608401526080830190612aa5565b3461022e57602036600319011261022e576004355f5260086020526108b3600860405f20016127cd565b3461022e57604036600319011261022e576004356024356001600160401b03811161022e573660238201121561022e5780600401356109f981612bf8565b91610a07604051938461270c565b81835260208301906024829360051b8201019036821161022e5760248101925b828410610c355750505050610a3e6106f58461348d565b825f526008602052600460405f2001915190600160401b82116105bc578254828455808310610bbe575b50915f5260205f20915f905b828210610aa257847ff8d550f5e83b49992d2f2453bd91a7b230fff0b6e9f6a857b1ef19be7a150c125f80a2005b80518051906001600160401b0382116105bc57610abf865461269e565b601f8111610b83575b50602090601f8311600114610b1a5792610b00836001959460209487965f92610b0f575b50508160011b915f199060031b1c19161790565b87555b01940191019092610a74565b015190508b80610aec565b90601f19831691875f52815f20925f5b818110610b6b5750936020936001969387969383889510610b53575b505050811b018755610b03565b01515f1960f88460031b161c191690558a8080610b46565b92936020600181928786015181550195019301610b2a565b610bae90875f5260205f20601f850160051c81019160208610610bb4575b601f0160051c0190613262565b87610ac8565b9091508190610ba1565b835f528260205f2091820191015b818110610bd95750610a68565b80610be66001925461269e565b80610bf3575b5001610bcc565b601f81118314610c0857505f81555b87610bec565b610c2490825f5283601f60205f20920160051c82019101613262565b805f525f6020812081835555610c02565b83356001600160401b03811161022e57602091610c59839260243691870101612c60565b815201930192610a27565b3461022e57604036600319011261022e57610c7d6125a7565b6024359081151580920361022e576001600160a01b0316908115610cec57335f52600560205260405f20825f5260205260405f2060ff1981541660ff83161790556040519081527f17307eab39ab6107e8899845ad3d59bd9653f200f220920489ca2b5937696c3160203392a3005b50630b61174360e31b5f5260045260245ffd5b3461022e57602036600319011261022e57604051610d1c816126d6565b60608152606060208201525f60408201525f606082015260606080820152606060a082015260c060405191610d50836126f1565b610d586132e5565b8352604051610d66816126f1565b5f81525f60208201525f60408201526060808201526020840152610d886132e5565b6040840152604051610d99816126d6565b5f81525f60208201525f60408201525f60608201525f60808201525f60a08201525f83820152606084015201526004355f52600860205261010060405f2061068360405191610de7836126d6565b610df08161272d565b8352610ed883610ec5610e056001850161272d565b9360208301948552600281015490604084019163ffffffff8116835260ff606086019160201c161515815263ffffffff610ea3610e6a6005610e496003870161272d565b9560808a0196875260a0610e5f6004830161301f565b9a01998a5201612a57565b9860c08c01998a52610e90604051809e819e60208352519160e060208201520190612583565b90518c8203601f190160408e0152612583565b93511660608a0152511515608089015251878203601f190160a0890152612583565b9051858203601f190160c0870152612646565b9051838203601f190160e0850152612ade565b3461022e575f36600319011261022e576040515f600154610f0b8161269e565b8084529060018116908115610f915750600114610f33575b6106838361066f8185038261270c565b60015f9081527fb10e2d527612073b26eecdfd717e6a320cf44b4afac2b0732d9fcbe2b7fa0cf6939250905b808210610f775750909150810160200161066f610f23565b919260018160209254838588010152019101909291610f5f565b60ff191660208086019190915291151560051b8401909101915061066f9050610f23565b3461022e575f36600319011261022e576007546040516001600160a01b039091168152602090f35b3461022e5760c036600319011261022e576004356001600160401b03811161022e5761100d903690600401612c60565b6110156125bd565b906044356001600160401b03811161022e57611035903690600401612c60565b916064356001600160401b03811161022e57611055903690600401612c60565b926084356001600160401b03811161022e57611075903690600401612d03565b9060a4356001600160401b03811161022e57611095903690600401612c60565b6007546001600160a01b039094169360a01c6001600160401b03168415611c31575f818152600260205260409020546001600160a01b03168015159182611bfe575b865f52600360205260405f2060018154019055805f52600260205260405f20876bffffffffffffffffffffffff60a01b82541617905586827fddf252ad1be2c89b69c2b068fc378daa952ba7f163c4a11628f55a4df523b3ef5f80a450611beb576001600160401b0360075460a01c1690815f52600660205260405f20908051906001600160401b0382116105bc57611170835461269e565b601f8111611bbb575b50602090601f8311600114611b3357827ff8e1a15aba9398e019f0b49df1a4fde98ee17ae345cb5f6b5e2c27f5033e8ce79593602095936111ce935f92611a025750508160011b915f199060031b1c19161790565b90555b604051908152a1604051916111e5836126f1565b6005835260646020840152600a6040840152603260608401526040519061120b826126f1565b606482526005602083015260016040830152606082015260405161122e816126f1565b6064815260056020820152606460408201526005606082015260405191611254836126d6565b6001835260016020840152600160408401526001606084015260016080840152600160a08401525f60c08401526040519461128e866126f1565b8552602085015260408401526060830152604051946112ac866126d6565b848652602086019182526040860160018152606087015f81526080880192835260a08801936060855260c089019586526001600160401b0360075460a01c165f52600860205260405f2098518051906001600160401b0382116105bc576113138b5461269e565b601f8111611b03575b50602090601f8311600114611aa05761134b92915f9183611a025750508160011b915f199060031b1c19161790565b89555b51805160018a01916001600160401b0382116105bc5761136e835461269e565b601f8111611a70575b50602090601f8311600114611a0d576113a692915f9183611a025750508160011b915f199060031b1c19161790565b90555b63ffffffff8060028a019351161663ffffffff1983541617825551151564ff0000000082549160201b169064ff0000000019161790556003860190518051906001600160401b0382116105bc57611400835461269e565b601f81116119d2575b50602090601f831160011461196f5761143892915f91836119645750508160011b915f199060031b1c19161790565b90555b5180516004860191600160401b82116105bc5782548284558083106118ed575b50602001915f5260205f20915f905b8282106117dd575050505051611484815160058601613278565b6020818101518051600687018054838501516040808601519190961b63ffffffff60201b1663ffffffff9094166bffffffffffffffffffffffff1990921691909117929092179190931b63ffffffff60401b1617909155936060600782019501518051906001600160401b0382116105bc57600160401b82116105bc576020908754838955808410611789575b5001955f5260205f208160031c915f5b838110611747575060071981169003806116e8575b5050506116979394509063ffffffff60c06060600961164e95611560604087015160088301613278565b01930151828082511616831985541617845561159d83602083015116859063ffffffff60201b82549160201b169063ffffffff60201b1916179055565b604081810151855463ffffffff60401b191690851690911b63ffffffff60401b16178455606081810151855463ffffffff60601b191690851690911b63ffffffff60601b16178455608081810151855463ffffffff60801b191690851690911b63ffffffff60801b1617845560a081810151855463ffffffff60a01b191690851690911b63ffffffff60a01b161784550151825463ffffffff60c01b1916911660c01b63ffffffff60c01b16179055565b600754927f406db43b56dc3cd00666f8d287e3121d5a8799dff6925d379f0c36d74473489f6001600160401b038560a01c16938492604051918291602083526020830190612583565b0390a36001600160401b0381146116d45767ffffffffffffffff60a01b1990911660019190910160a01b67ffffffffffffffff60a01b1617600755005b634e487b7160e01b5f52601160045260245ffd5b965f975f5b81811061170f575050500194909455919283929063ffffffff60c06060611536565b909198602061173d60019263ffffffff8d5116908560021b63ffffffff809160031b9316831b921b19161790565b9a019291016116ed565b5f5f5b6008811061175f575083820155600101611521565b8a51909a9160019160209163ffffffff60058f901b81811b199092169216901b1792019a0161174a565b6117b690895f52835f20600780870160031c820192601c8860021b16806117bc57500160031c0190613262565b88611511565b6117d7905f198601908154905f199060200360031b1c169055565b8d610589565b80518051906001600160401b0382116105bc576117fa865461269e565b601f81116118bd575b50602090601f8311600114611854579261183a836001959460209487965f926118495750508160011b915f199060031b1c19161790565b87555b0194019101909261146a565b015190508e80610aec565b90601f19831691875f52815f20925f5b8181106118a5575093602093600196938796938388951061188d575b505050811b01875561183d565b01515f1960f88460031b161c191690558d8080611880565b92936020600181928786015181550195019301611864565b6118e790875f5260205f20601f850160051c81019160208610610bb457601f0160051c0190613262565b8a611803565b835f528260205f2091820191015b818110611908575061145b565b806119156001925461269e565b80611922575b50016118fb565b601f8111831461193757505f81555b8a61191b565b61195390825f5283601f60205f20920160051c82019101613262565b805f525f6020812081835555611931565b015190508980610aec565b90601f19831691845f52815f20925f5b8181106119ba57509084600195949392106119a2575b505050811b01905561143b565b01515f1960f88460031b161c19169055888080611995565b9293602060018192878601518155019501930161197f565b6119fc90845f5260205f20601f850160051c81019160208610610bb457601f0160051c0190613262565b88611409565b015190508c80610aec565b90601f19831691845f52815f20925f5b818110611a585750908460019594939210611a40575b505050811b0190556113a9565b01515f1960f88460031b161c191690558b8080611a33565b92936020600181928786015181550195019301611a1d565b611a9a90845f5260205f20601f850160051c81019160208610610bb457601f0160051c0190613262565b8b611377565b90601f198316918c5f52815f20925f5b818110611aeb5750908460019594939210611ad3575b505050811b01895561134e565b01515f1960f88460031b161c191690558b8080611ac6565b92936020600181928786015181550195019301611ab0565b611b2d908c5f5260205f20601f850160051c81019160208610610bb457601f0160051c0190613262565b8b61131c565b90601f19831691845f52815f20925f5b818110611ba357509260019285927ff8e1a15aba9398e019f0b49df1a4fde98ee17ae345cb5f6b5e2c27f5033e8ce798966020989610611b8b575b505050811b0190556111d1565b01515f1960f88460031b161c191690558b8080611b7e565b92936020600181928786015181550195019301611b43565b611be590845f5260205f20601f850160051c81019160208610610bb457601f0160051c0190613262565b89611179565b6339e3563760e11b5f525f60045260245ffd5b5f81815260046020526040902080546001600160a01b0319169055815f52600360205260405f205f1981540190556110d7565b633250574960e11b5f525f60045260245ffd5b3461022e57602036600319011261022e576004355f526008602052611d0a60405f2061068360405191611c76836126d6565b611c7f8161272d565b8352611c8d6001820161272d565b602084015260028101549063ffffffff6040850194818416865260ff606082019460201c1615158452611ce66005611cc76003860161272d565b9460808401958652611cdb6004820161301f565b60a085015201612a57565b60c08201525194511691511515905190604051958695608087526080870190612583565b92602086015260408501528382036060850152612583565b3461022e57602036600319011261022e57600435611d3e6134c1565b805f526008602052600260405f200164010000000064ff00000000198254161790557f540fec434dc55460a3fc8e26e22162c262020fddb3f78e0f695c4bd138fe27895f80a2005b3461022e57602036600319011261022e576004356001600160401b03811161022e573660238201121561022e57806004013590611dc282612bf8565b91611dd0604051938461270c565b8083526024602084019160051b8301019136831161022e57602401905b828210611fbf57835184611e0082613219565b90611e0a83612bf8565b611e17604051918261270c565b838152601f19611e2685612bf8565b01366020830137611e3684612bf8565b90611e44604051928361270c565b848252611e5085612bf8565b602083019590601f1901368737611e6681613219565b935f5b828110611ee157505050611e9b602091611e8e60405196608088526080880190612646565b9086820384880152612aa5565b91848303604086015251918281520193905f5b818110611ec957848061068388878382036060850152612646565b82511515865260209586019590920191600101611eae565b80611eee60019284612dae565b515f52600860205260405f20604051611f06816126d6565b611f0f8261272d565b8152611f1c84830161272d565b602082015263ffffffff6002830154918b611f7b866040840193858716855260ff606082019760201c1615158752611f6f6005611f5b60038b0161272d565b99608084019a8b52611cdb6004820161301f565b60c08201525192612dae565b52611f86858d612dae565b505116611f938489612dae565b52511515611fa18389612dae565b5251611fad8289612dae565b52611fb88188612dae565b5001611e69565b8135815260209182019101611ded565b3461022e57602036600319011261022e576004356001600160401b0360075460a01c16811080612007575b6020906040519015158152f35b505f526002602052602060018060a01b0360405f2054161515611ffa565b3461022e57602036600319011261022e576106836120496120446125a7565b6130a5565b604051918291826125d3565b3461022e57602036600319011261022e576004355f5260086020526120cc60405f206106836120838261272d565b916120ff6120936001830161272d565b9160028101549060ff6120da6120b760056120b06003860161272d565b9401612a57565b95604051998a9960c08b5260c08b0190612583565b9089820360208b0152612583565b9263ffffffff8116604089015260201c16151560608701528582036080870152612583565b9083820360a0850152612ade565b3461022e575f36600319011261022e576121256134c1565b600780546001600160a01b031981169091555f906001600160a01b03167f8be0079c531659141344cd1fd0a4f28419497f9722a3daafe3b4186f6b6457e08280a3005b3461022e57602036600319011261022e57602061218660043561348d565b6040516001600160a01b039091168152f35b3461022e576108876121a93661260c565b90604051926121b960208561270c565b5f845261334d565b3461022e57602036600319011261022e576004356121dd6134c1565b805f526008602052600260405f200164ff000000001981541690557f0101d5c30f5e22952f75645090e90c4343af50dd6b77da2f47e03d6cbf57e17e5f80a2005b3461022e57602036600319011261022e576004355f52600860205261068361224b600460405f200161301f565b604051918291602083526020830190612646565b3461022e57602036600319011261022e576004355f52600860205260e061228b600960405f20016129fc565b63ffffffff8151169063ffffffff6020820151169063ffffffff60408201511663ffffffff60608301511663ffffffff6080840151169163ffffffff60c08160a0870151169501511694604051968752602087015260408601526060850152608084015260a083015260c0820152f35b3461022e5761088761230c3661260c565b91612e92565b3461022e57604036600319011261022e5761232b6125a7565b6024356123378161348d565b331515806123e9575b806123bc575b6123a95781906001600160a01b0384811691167f8c5be1e5ebec7d5bd14f71427d1e84f3dd0314c0f7b2291e5b200ac8c7c3b9255f80a45f90815260046020526040902080546001600160a01b0319166001600160a01b03909216919091179055005b63a9fbf51f60e01b5f523360045260245ffd5b506001600160a01b0381165f90815260056020908152604080832033845290915290205460ff1615612346565b506001600160a01b038116331415612340565b3461022e57602036600319011261022e576004356124198161348d565b505f526004602052602060018060a01b0360405f205416604051908152f35b3461022e57602036600319011261022e576106836120496124576125a7565b612dd6565b3461022e575f36600319011261022e576040515f5f5461247b8161269e565b8084529060018116908115610f9157506001146124a2576106838361066f8185038261270c565b5f8080527f290decd9548b62a8d60345a988386fc84ba6bc95484008f6362f93160ef3e563939250905b8082106124e45750909150810160200161066f610f23565b9192600181602092548385880101520191019092916124cc565b3461022e57602036600319011261022e576004359063ffffffff60e01b821680920361022e57602091632483248360e11b8114908115612540575b5015158152f35b6380ac58cd60e01b811491508115612572575b8115612561575b5083612539565b6301ffc9a760e01b1490508361255a565b635b5e139f60e01b81149150612553565b805180835260209291819084018484015e5f828201840152601f01601f1916010190565b600435906001600160a01b038216820361022e57565b602435906001600160a01b038216820361022e57565b60206040818301928281528451809452019201905f5b8181106125f65750505090565b82518452602093840193909201916001016125e9565b606090600319011261022e576004356001600160a01b038116810361022e57906024356001600160a01b038116810361022e579060443590565b9080602083519182815201916020808360051b8301019401925f915b83831061267157505050505090565b909192939460208061268f600193601f198682030187528951612583565b97019301930191939290612662565b90600182811c921680156126cc575b60208310146126b857565b634e487b7160e01b5f52602260045260245ffd5b91607f16916126ad565b60e081019081106001600160401b038211176105bc57604052565b608081019081106001600160401b038211176105bc57604052565b90601f801991011681019081106001600160401b038211176105bc57604052565b9060405191825f8254926127408461269e565b80845293600181169081156127ab5750600114612767575b506127659250038361270c565b565b90505f9291925260205f20905f915b81831061278f575050906020612765928201015f612758565b6020919350806001915483858901015201910190918492612776565b90506020925061276594915060ff191682840152151560051b8201015f612758565b906040516127da816126f1565b606063ffffffff8294548181168452818160201c166020850152818160401c166040850152821c16910152565b90604051612814816126f1565b6001819363ffffffff81548181168552818160201c16602086015260401c166040840152019060405180928391602082549182815201915f5260205f20905f915b81600784011061297557916128b293916060969593549181811061295e575b818110612945575b81811061292b575b818110612912575b8181106128f8575b8181106128de575b8181106128c4575b106128b6575b50038461270c565b0152565b60e01c81526020015f6128aa565b92602060019163ffffffff8560c01c1681520193016128a4565b92602060019163ffffffff8560a01c16815201930161289c565b92602060019163ffffffff8560801c168152019301612894565b92602060019163ffffffff858b1c16815201930161288c565b92602060019163ffffffff8560401c168152019301612884565b92602060019163ffffffff85831c16815201930161287c565b92602060019163ffffffff85168152019301612874565b935090916001610100600892865463ffffffff8116825263ffffffff8160201c16602083015263ffffffff8160401c16604083015263ffffffff8160601c16606083015263ffffffff8160801c16608083015263ffffffff8160a01c1660a083015263ffffffff8160c01c1660c083015260e01c60e0820152019401920190859392612855565b90604051612a09816126d6565b60c063ffffffff8294548181168452818160201c166020850152818160401c166040850152818160601c166060850152818160801c166080850152818160a01c1660a0850152821c16910152565b90604051612a64816126f1565b6060612aa060048395612a76816127cd565b8552612a8460018201612807565b6020860152612a95600382016127cd565b6040860152016129fc565b910152565b90602080835192838152019201905f5b818110612ac25750505090565b825163ffffffff16845260209384019390920191600101612ab5565b90612b1481835163ffffffff60608092828151168552826020820151166020860152826040820151166040860152015116910152565b6101e063ffffffff60c06060612b6a816020880151610200608089015285815116610200890152856020820151166102208901528560408201511661024089015201516080610260880152610280870190612aa5565b604080880151805163ffffffff90811660a08a01526020820151811660c08a015291810151821660e0890152606001511661010087015295015182815116610120860152826020820151166101408601528260408201511661016086015282606082015116610180860152826080820151166101a08601528260a0820151166101c086015201511691015290565b6001600160401b0381116105bc5760051b60200190565b6001600160401b0381116105bc57601f01601f191660200190565b929192612c3682612c0f565b91612c44604051938461270c565b82948184528183011161022e578281602093845f960137010152565b9080601f8301121561022e57816020612c7b93359101612c2a565b90565b6024359063ffffffff8216820361022e57565b6044359063ffffffff8216820361022e57565b6064359063ffffffff8216820361022e57565b6084359063ffffffff8216820361022e57565b60a4359063ffffffff8216820361022e57565b60c4359063ffffffff8216820361022e57565b60e4359063ffffffff8216820361022e57565b9080601f8301121561022e57813590612d1b82612bf8565b92612d29604051948561270c565b82845260208085019360051b82010191821161022e57602001915b818310612d515750505090565b823563ffffffff8116810361022e57815260209283019201612d44565b90612d7882612bf8565b612d85604051918261270c565b8281528092612d96601f1991612bf8565b0190602036910137565b5f1981146116d45760010190565b8051821015612dc25760209160051b010190565b634e487b7160e01b5f52603260045260245ffd5b90612de082613074565b908115612e7757612df082612d6e565b905f905f936001600160401b0360075460a01c16945b85811080612e6e575b15612e64575f818152600260205260409020546001600160a01b03888116911614612e43575b612e3e90612da0565b612e06565b92612e5c8185612e56612e3e9489612dae565b52612da0565b939050612e35565b5050935050905090565b50818410612e0f565b915050604051612e8860208261270c565b5f81525f36813790565b6001600160a01b0390911691908215611c31575f828152600260205260409020546001600160a01b031692829033151580612f8a575b5084612f57575b805f52600360205260405f2060018154019055815f52600260205260405f20816bffffffffffffffffffffffff60a01b825416179055847fddf252ad1be2c89b69c2b068fc378daa952ba7f163c4a11628f55a4df523b3ef5f80a46001600160a01b0316808303612f3f57505050565b6364283d7b60e01b5f5260045260245260445260645ffd5b5f82815260046020526040902080546001600160a01b0319169055845f52600360205260405f205f198154019055612ecf565b90915080612fce575b15612fa05782905f612ec8565b8284612fb857637e27328960e01b5f5260045260245ffd5b63177e802f60e01b5f523360045260245260445ffd5b503384148015612ffd575b80612f9357505f838152600460205260409020546001600160a01b03163314612f93565b505f84815260056020908152604080832033845290915290205460ff16612fd9565b90815461302b81612bf8565b92613039604051948561270c565b81845260208401905f5260205f205f915b8383106130575750505050565b6001602081926130668561272d565b81520192019201919061304a565b6001600160a01b03168015613092575f52600360205260405f205490565b6322718ad960e21b5f525f60045260245ffd5b6001600160a01b038116919082156131dc576130c090613074565b156131cc5760075460a01c6001600160401b0316905f805b83811061316f57506130e981612d6e565b915f915f5b85811080613166575b15612e64575f818152600260205260409020546001600160a01b0316871480613149575b61312e575b61312990612da0565b6130ee565b926131418185612e566131299489612dae565b939050613120565b50805f52600860205260ff600260405f20015460201c161561311b565b508184106130f7565b5f818152600260205260409020546001600160a01b03168514806131af575b61319b575b6001016130d8565b906131a7600191612da0565b919050613193565b50805f52600860205260ff600260405f20015460201c161561318e565b9050604051612e8860208261270c565b60405162461bcd60e51b8152602060048201526015602482015274496e76616c6964206f776e6572206164647265737360581b6044820152606490fd5b9061322382612bf8565b613230604051918261270c565b8281528092613241601f1991612bf8565b01905f5b82811061325157505050565b806060602080938501015201613245565b81811061326d575050565b5f8155600101613262565b8151815460208085015160408087015163ffffffff60401b911b166bffffffffffffffffffffffff1990931663ffffffff9485161763ffffffff60201b9190921b16171782556127659260600151825463ffffffff60601b1916911660601b63ffffffff60601b16179055565b604051906132f2826126f1565b5f6060838281528260208201528260408201520152565b1561331057565b60405162461bcd60e51b81526020600482015260156024820152744f6e6c79206f776e65722063616e2075706461746560581b6044820152606490fd5b929161335a818386612e92565b813b613367575b50505050565b604051630a85bd0160e11b81523360048201526001600160a01b03948516602482015260448101919091526080606482015292169190602090829081906133b2906084830190612583565b03815f865af15f9181613448575b5061341557503d1561340e573d6133d681612c0f565b906133e4604051928361270c565b81523d5f602083013e5b805190816134095782633250574960e11b5f5260045260245ffd5b602001fd5b60606133ee565b6001600160e01b03191663757a42ff60e11b0161343657505f808080613361565b633250574960e11b5f5260045260245ffd5b9091506020813d602011613485575b816134646020938361270c565b8101031261022e57516001600160e01b03198116810361022e57905f6133c0565b3d9150613457565b5f818152600260205260409020546001600160a01b03169081156134af575090565b637e27328960e01b5f5260045260245ffd5b6007546001600160a01b031633036134d557565b63118cdaa760e01b5f523360045260245ffd5b6134f18161348d565b505f52600660205261350560405f2061272d565b5f60405161351460208261270c565b529056fea264697066735822122081670993f8d4c79ef09475fd9665cceb36fd8ebf6b75aaea1d70d5c1b727c1be64736f6c634300081e0033",
                "linkReferences": {}
        },
        "methodIdentifiers": {
                "approve(address,uint256)": "095ea7b3",
                "balanceOf(address)": "70a08231",
                "banHero(uint256)": "822cb6a4",
                "getActiveHeroesByOwner(address)": "77bda499",
                "getApproved(uint256)": "081812fc",
                "getHeroBasicInfo(uint256)": "87e6e4c2",
                "getHeroCountByOwner(address)": "b6d06389",
                "getHeroData(uint256)": "9e94af5a",
                "getHeroDefensiveStats(uint256)": "aec253f2",
                "getHeroEquippedItems(uint256)": "3d6b6b81",
                "getHeroOffensiveStats(uint256)": "b7e5b19c",
                "getHeroSpecialStats(uint256)": "a95a3991",
                "getHeroStatPoints(uint256)": "2d1bf7c5",
                "getHeroesByOwner(address)": "07c99f4e",
                "getMultipleHeroesBasicInfo(uint256[])": "7fbe7b4f",
                "heroData(uint256)": "73b31190",
                "heroExists(uint256)": "7f49fa53",
                "isApprovedForAll(address,address)": "e985e9c5",
                "mintHero(string,address,string,string,uint32[],string)": "8b8f6e2c",
                "name()": "06fdde03",
                "owner()": "8da5cb5b",
                "ownerOf(uint256)": "6352211e",
                "renounceOwnership()": "715018a6",
                "safeTransferFrom(address,address,uint256)": "42842e0e",
                "safeTransferFrom(address,address,uint256,bytes)": "b88d4fde",
                "setApprovalForAll(address,bool)": "a22cb465",
                "supportsInterface(bytes4)": "01ffc9a7",
                "symbol()": "95d89b41",
                "tokenCounter()": "d082e381",
                "tokenURI(uint256)": "c87b56dd",
                "transferFrom(address,address,uint256)": "23b872dd",
                "transferOwnership(address)": "f2fde38b",
                "unbanHero(uint256)": "41441b02",
                "updateHeroItems(uint256,string[])": "a7471c7c",
                "updateHeroMainStats(uint256,uint32,uint32,uint32,uint32,uint32,uint32,uint32)": "b9a178b5",
                "updateHeroStats(uint256,uint32,uint32,uint32,uint32,uint32,uint32,uint32,uint32,uint32[],uint32,uint32,uint32,uint32)": "f1e17d28"
        },
        "id": 38
}