{"abi":[{"type":"constructor","inputs":[],"stateMutability":"nonpayable"},{"type":"function","name":"approve","inputs":[{"name":"to","type":"address","internalType":"address"},{"name":"tokenId","type":"uint256","internalType":"uint256"}],"outputs":[],"stateMutability":"nonpayable"},{"type":"function","name":"balanceOf","inputs":[{"name":"owner","type":"address","internalType":"address"}],"outputs":[{"name":"","type":"uint256","internalType":"uint256"}],"stateMutability":"view"},{"type":"function","name":"banHero","inputs":[{"name":"tokenId","type":"uint256","internalType":"uint256"}],"outputs":[],"stateMutability":"nonpayable"},{"type":"function","name":"getApproved","inputs":[{"name":"tokenId","type":"uint256","internalType":"uint256"}],"outputs":[{"name":"","type":"address","internalType":"address"}],"stateMutability":"view"},{"type":"function","name":"getHeroData","inputs":[{"name":"tokenId","type":"uint256","internalType":"uint256"}],"outputs":[{"name":"","type":"tuple","internalType":"struct Hero.HeroData","components":[{"name":"playerName","type":"string","internalType":"string"},{"name":"playerID","type":"string","internalType":"string"},{"name":"level","type":"uint32","internalType":"uint32"},{"name":"isBanned","type":"bool","internalType":"bool"},{"name":"raceName","type":"string","internalType":"string"},{"name":"equippedItems","type":"string[]","internalType":"string[]"},{"name":"stats","type":"tuple","internalType":"struct Hero.Stats","components":[{"name":"offensiveStats","type":"tuple","internalType":"struct Hero.OffensiveStats","components":[{"name":"damage","type":"uint32","internalType":"uint32"},{"name":"attackSpeed","type":"uint32","internalType":"uint32"},{"name":"criticalRate","type":"uint32","internalType":"uint32"},{"name":"criticalDamage","type":"uint32","internalType":"uint32"}]},{"name":"defensiveStats","type":"tuple","internalType":"struct Hero.DefensiveStats","components":[{"name":"maxHealth","type":"uint32","internalType":"uint32"},{"name":"defense","type":"uint32","internalType":"uint32"},{"name":"healthRegeneration","type":"uint32","internalType":"uint32"},{"name":"resistances","type":"uint32[]","internalType":"uint32[]"}]},{"name":"specialStats","type":"tuple","internalType":"struct Hero.SpecialStats","components":[{"name":"maxEnergy","type":"uint32","internalType":"uint32"},{"name":"energyRegeneration","type":"uint32","internalType":"uint32"},{"name":"maxMana","type":"uint32","internalType":"uint32"},{"name":"manaRegeneration","type":"uint32","internalType":"uint32"}]},{"name":"statPointsAssigned","type":"tuple","internalType":"struct Hero.StatPointsAssigned","components":[{"name":"constitution","type":"uint32","internalType":"uint32"},{"name":"strength","type":"uint32","internalType":"uint32"},{"name":"dexterity","type":"uint32","internalType":"uint32"},{"name":"intelligence","type":"uint32","internalType":"uint32"},{"name":"stamina","type":"uint32","internalType":"uint32"},{"name":"agility","type":"uint32","internalType":"uint32"},{"name":"remainingPoints","type":"uint32","internalType":"uint32"}]}]}]}],"stateMutability":"view"},{"type":"function","name":"heroData","inputs":[{"name":"","type":"uint256","internalType":"uint256"}],"outputs":[{"name":"playerName","type":"string","internalType":"string"},{"name":"playerID","type":"string","internalType":"string"},{"name":"level","type":"uint32","internalType":"uint32"},{"name":"isBanned","type":"bool","internalType":"bool"},{"name":"raceName","type":"string","internalType":"string"},{"name":"stats","type":"tuple","internalType":"struct Hero.Stats","components":[{"name":"offensiveStats","type":"tuple","internalType":"struct Hero.OffensiveStats","components":[{"name":"damage","type":"uint32","internalType":"uint32"},{"name":"attackSpeed","type":"uint32","internalType":"uint32"},{"name":"criticalRate","type":"uint32","internalType":"uint32"},{"name":"criticalDamage","type":"uint32","internalType":"uint32"}]},{"name":"defensiveStats","type":"tuple","internalType":"struct Hero.DefensiveStats","components":[{"name":"maxHealth","type":"uint32","internalType":"uint32"},{"name":"defense","type":"uint32","internalType":"uint32"},{"name":"healthRegeneration","type":"uint32","internalType":"uint32"},{"name":"resistances","type":"uint32[]","internalType":"uint32[]"}]},{"name":"specialStats","type":"tuple","internalType":"struct Hero.SpecialStats","components":[{"name":"maxEnergy","type":"uint32","internalType":"uint32"},{"name":"energyRegeneration","type":"uint32","internalType":"uint32"},{"name":"maxMana","type":"uint32","internalType":"uint32"},{"name":"manaRegeneration","type":"uint32","internalType":"uint32"}]},{"name":"statPointsAssigned","type":"tuple","internalType":"struct Hero.StatPointsAssigned","components":[{"name":"constitution","type":"uint32","internalType":"uint32"},{"name":"strength","type":"uint32","internalType":"uint32"},{"name":"dexterity","type":"uint32","internalType":"uint32"},{"name":"intelligence","type":"uint32","internalType":"uint32"},{"name":"stamina","type":"uint32","internalType":"uint32"},{"name":"agility","type":"uint32","internalType":"uint32"},{"name":"remainingPoints","type":"uint32","internalType":"uint32"}]}]}],"stateMutability":"view"},{"type":"function","name":"isApprovedForAll","inputs":[{"name":"owner","type":"address","internalType":"address"},{"name":"operator","type":"address","internalType":"address"}],"outputs":[{"name":"","type":"bool","internalType":"bool"}],"stateMutability":"view"},{"type":"function","name":"mintHero","inputs":[{"name":"_playerName","type":"string","internalType":"string"},{"name":"_owner","type":"address","internalType":"address"},{"name":"_playerID","type":"string","internalType":"string"},{"name":"_raceName","type":"string","internalType":"string"},{"name":"_resistances","type":"uint32[]","internalType":"uint32[]"},{"name":"_tokenURI","type":"string","internalType":"string"}],"outputs":[],"stateMutability":"nonpayable"},{"type":"function","name":"name","inputs":[],"outputs":[{"name":"","type":"string","internalType":"string"}],"stateMutability":"view"},{"type":"function","name":"owner","inputs":[],"outputs":[{"name":"","type":"address","internalType":"address"}],"stateMutability":"view"},{"type":"function","name":"ownerOf","inputs":[{"name":"tokenId","type":"uint256","internalType":"uint256"}],"outputs":[{"name":"","type":"address","internalType":"address"}],"stateMutability":"view"},{"type":"function","name":"renounceOwnership","inputs":[],"outputs":[],"stateMutability":"nonpayable"},{"type":"function","name":"safeTransferFrom","inputs":[{"name":"from","type":"address","internalType":"address"},{"name":"to","type":"address","internalType":"address"},{"name":"tokenId","type":"uint256","internalType":"uint256"}],"outputs":[],"stateMutability":"nonpayable"},{"type":"function","name":"safeTransferFrom","inputs":[{"name":"from","type":"address","internalType":"address"},{"name":"to","type":"address","internalType":"address"},{"name":"tokenId","type":"uint256","internalType":"uint256"},{"name":"data","type":"bytes","internalType":"bytes"}],"outputs":[],"stateMutability":"nonpayable"},{"type":"function","name":"setApprovalForAll","inputs":[{"name":"operator","type":"address","internalType":"address"},{"name":"approved","type":"bool","internalType":"bool"}],"outputs":[],"stateMutability":"nonpayable"},{"type":"function","name":"supportsInterface","inputs":[{"name":"interfaceId","type":"bytes4","internalType":"bytes4"}],"outputs":[{"name":"","type":"bool","internalType":"bool"}],"stateMutability":"view"},{"type":"function","name":"symbol","inputs":[],"outputs":[{"name":"","type":"string","internalType":"string"}],"stateMutability":"view"},{"type":"function","name":"tokenCounter","inputs":[],"outputs":[{"name":"","type":"uint256","internalType":"uint256"}],"stateMutability":"view"},{"type":"function","name":"tokenURI","inputs":[{"name":"tokenId","type":"uint256","internalType":"uint256"}],"outputs":[{"name":"","type":"string","internalType":"string"}],"stateMutability":"view"},{"type":"function","name":"transferFrom","inputs":[{"name":"from","type":"address","internalType":"address"},{"name":"to","type":"address","internalType":"address"},{"name":"tokenId","type":"uint256","internalType":"uint256"}],"outputs":[],"stateMutability":"nonpayable"},{"type":"function","name":"transferOwnership","inputs":[{"name":"newOwner","type":"address","internalType":"address"}],"outputs":[],"stateMutability":"nonpayable"},{"type":"function","name":"unbanHero","inputs":[{"name":"tokenId","type":"uint256","internalType":"uint256"}],"outputs":[],"stateMutability":"nonpayable"},{"type":"function","name":"updateHeroItems","inputs":[{"name":"tokenId","type":"uint256","internalType":"uint256"},{"name":"newEquippedItems","type":"string[]","internalType":"string[]"}],"outputs":[],"stateMutability":"nonpayable"},{"type":"function","name":"updateHeroMainStats","inputs":[{"name":"tokenId","type":"uint256","internalType":"uint256"},{"name":"constitution","type":"uint32","internalType":"uint32"},{"name":"strength","type":"uint32","internalType":"uint32"},{"name":"dexterity","type":"uint32","internalType":"uint32"},{"name":"intelligence","type":"uint32","internalType":"uint32"},{"name":"stamina","type":"uint32","internalType":"uint32"},{"name":"agility","type":"uint32","internalType":"uint32"},{"name":"remainingPoints","type":"uint32","internalType":"uint32"}],"outputs":[],"stateMutability":"nonpayable"},{"type":"function","name":"updateHeroStats","inputs":[{"name":"tokenId","type":"uint256","internalType":"uint256"},{"name":"newLevel","type":"uint32","internalType":"uint32"},{"name":"damage","type":"uint32","internalType":"uint32"},{"name":"attackSpeed","type":"uint32","internalType":"uint32"},{"name":"criticalRate","type":"uint32","internalType":"uint32"},{"name":"criticalDamage","type":"uint32","internalType":"uint32"},{"name":"maxHealth","type":"uint32","internalType":"uint32"},{"name":"defense","type":"uint32","internalType":"uint32"},{"name":"healthRegen","type":"uint32","internalType":"uint32"},{"name":"resistances","type":"uint32[]","internalType":"uint32[]"},{"name":"maxEnergy","type":"uint32","internalType":"uint32"},{"name":"energyRegen","type":"uint32","internalType":"uint32"},{"name":"maxMana","type":"uint32","internalType":"uint32"},{"name":"manaRegen","type":"uint32","internalType":"uint32"}],"outputs":[],"stateMutability":"nonpayable"},{"type":"event","name":"Approval","inputs":[{"name":"owner","type":"address","indexed":true,"internalType":"address"},{"name":"approved","type":"address","indexed":true,"internalType":"address"},{"name":"tokenId","type":"uint256","indexed":true,"internalType":"uint256"}],"anonymous":false},{"type":"event","name":"ApprovalForAll","inputs":[{"name":"owner","type":"address","indexed":true,"internalType":"address"},{"name":"operator","type":"address","indexed":true,"internalType":"address"},{"name":"approved","type":"bool","indexed":false,"internalType":"bool"}],"anonymous":false},{"type":"event","name":"BatchMetadataUpdate","inputs":[{"name":"_fromTokenId","type":"uint256","indexed":false,"internalType":"uint256"},{"name":"_toTokenId","type":"uint256","indexed":false,"internalType":"uint256"}],"anonymous":false},{"type":"event","name":"MetadataUpdate","inputs":[{"name":"_tokenId","type":"uint256","indexed":false,"internalType":"uint256"}],"anonymous":false},{"type":"event","name":"OwnershipTransferred","inputs":[{"name":"previousOwner","type":"address","indexed":true,"internalType":"address"},{"name":"newOwner","type":"address","indexed":true,"internalType":"address"}],"anonymous":false},{"type":"event","name":"Transfer","inputs":[{"name":"from","type":"address","indexed":true,"internalType":"address"},{"name":"to","type":"address","indexed":true,"internalType":"address"},{"name":"tokenId","type":"uint256","indexed":true,"internalType":"uint256"}],"anonymous":false},{"type":"error","name":"ERC721IncorrectOwner","inputs":[{"name":"sender","type":"address","internalType":"address"},{"name":"tokenId","type":"uint256","internalType":"uint256"},{"name":"owner","type":"address","internalType":"address"}]},{"type":"error","name":"ERC721InsufficientApproval","inputs":[{"name":"operator","type":"address","internalType":"address"},{"name":"tokenId","type":"uint256","internalType":"uint256"}]},{"type":"error","name":"ERC721InvalidApprover","inputs":[{"name":"approver","type":"address","internalType":"address"}]},{"type":"error","name":"ERC721InvalidOperator","inputs":[{"name":"operator","type":"address","internalType":"address"}]},{"type":"error","name":"ERC721InvalidOwner","inputs":[{"name":"owner","type":"address","internalType":"address"}]},{"type":"error","name":"ERC721InvalidReceiver","inputs":[{"name":"receiver","type":"address","internalType":"address"}]},{"type":"error","name":"ERC721InvalidSender","inputs":[{"name":"sender","type":"address","internalType":"address"}]},{"type":"error","name":"ERC721NonexistentToken","inputs":[{"name":"tokenId","type":"uint256","internalType":"uint256"}]},{"type":"error","name":"OwnableInvalidOwner","inputs":[{"name":"owner","type":"address","internalType":"address"}]},{"type":"error","name":"OwnableUnauthorizedAccount","inputs":[{"name":"account","type":"address","internalType":"address"}]}],"bytecode":{"object":"0x60806040523461033a5761001161033e565b634865726f60e01b602082015261002661033e565b634845524f60e01b602082015281516001600160401b038111610250575f54600181811c91168015610330575b602082101461023257601f81116102ce575b50602092601f821160011461026f57928192935f92610264575b50508160011b915f199060031b1c1916175f555b80516001600160401b03811161025057600154600181811c91168015610246575b602082101461023257601f81116101cf575b50602091601f821160011461016f579181925f92610164575b50508160011b915f199060031b1c1916176001555b33156101515760078054336001600160a01b03198216811790925560405191906001600160a01b03167f8be0079c531659141344cd1fd0a4f28419497f9722a3daafe3b4186f6b6457e05f80a35f600855612b8c90816103628239f35b631e4fbdf760e01b5f525f60045260245ffd5b015190505f806100df565b601f1982169260015f52805f20915f5b8581106101b75750836001951061019f575b505050811b016001556100f4565b01515f1960f88460031b161c191690555f8080610191565b9192602060018192868501518155019401920161017f565b60015f527fb10e2d527612073b26eecdfd717e6a320cf44b4afac2b0732d9fcbe2b7fa0cf6601f830160051c81019160208410610228575b601f0160051c01905b81811061021d57506100c6565b5f8155600101610210565b9091508190610207565b634e487b7160e01b5f52602260045260245ffd5b90607f16906100b4565b634e487b7160e01b5f52604160045260245ffd5b015190505f8061007f565b601f198216935f8052805f20915f5b8681106102b6575083600195961061029e575b505050811b015f55610093565b01515f1960f88460031b161c191690555f8080610291565b9192602060018192868501518155019401920161027e565b5f80527f290decd9548b62a8d60345a988386fc84ba6bc95484008f6362f93160ef3e563601f830160051c81019160208410610326575b601f0160051c01905b81811061031b5750610065565b5f815560010161030e565b9091508190610305565b90607f1690610053565b5f80fd5b60408051919082016001600160401b03811183821017610250576040526004825256fe6080806040526004361015610012575f80fd5b5f3560e01c90816301ffc9a714611f675750806306fdde0314611ec5578063081812fc14611e89578063095ea7b314611d9f57806323b872dd14611d8857806341441b0214611d4e57806342842e0e14611d1f5780636352211e14611cef57806370a0823114611c9e578063715018a614611c4357806373b3119014611b8b578063822cb6a414611b4a5780638b8f6e2c14610e395780638da5cb5b14610e1157806395d89b4114610d475780639e94af5a14610ac0578063a22cb46514610a25578063a7471c7c146107a1578063b88d4fde14610736578063b9a178b5146105d9578063c87b56dd146105a2578063d082e38114610585578063e985e9c51461052e578063f1e17d28146101b95763f2fde38b1461012f575f80fd5b346101b55760203660031901126101b557610148612010565b6101506129db565b6001600160a01b031680156101a257600780546001600160a01b0319811683179091556001600160a01b03167f8be0079c531659141344cd1fd0a4f28419497f9722a3daafe3b4186f6b6457e05f80a3005b631e4fbdf760e01b5f525f60045260245ffd5b5f80fd5b346101b5576101c03660031901126101b5576004356101d661263f565b906101df612652565b916101e8612665565b916101f1612678565b926101fa61268b565b9361020361269e565b61020b6126b1565b90610104359063ffffffff82168092036101b557610124356001600160401b0381116101b55761023f9036906004016126c4565b98610144359863ffffffff8a16809a036101b557610164359563ffffffff87168097036101b557610184359763ffffffff89168099036101b5576101a4359963ffffffff8b16809b036101b557610295816129a7565b6102a9906001600160a01b03163314612963565b5f52600960205260405f209a60028c019063ffffffff1663ffffffff19825416179055604051936102d9856120ae565b63ffffffff16845263ffffffff16602084015263ffffffff16604083015263ffffffff1660608201526005880190610310916128d2565b886040519161031e836120ae565b63ffffffff169384835263ffffffff169182602082015283604082015260600152600687019263ffffffff1663ffffffff1984541617835561037b90839063ffffffff60201b82549160201b169063ffffffff60201b1916179055565b815463ffffffff60401b191660409190911b63ffffffff60401b16179055855160078501966001600160401b03821161051a57600160401b821161051a576020908854838a558084106104c5575b5001965f5260205f208160031c915f5b8381106104775750600719811690038061041e575b61041c8860088989898960405195610405876120ae565b8652602086015260408501526060840152016128d2565b005b975f985f5b81811061043f57505050019590955561041c94600887806103ee565b909199602061046d60019263ffffffff8e5116908560021b63ffffffff809160031b9316831b921b19161790565b9b01929101610423565b5f5f5b6008811061048f5750838201556001016103d9565b9a9060206104bc8d60019363ffffffff8651169160021b63ffffffff809160031b9316831b921b19161790565b92019b0161047a565b6104f3908a5f52835f20600780870160031c820192601c8860021b16806104f9575b500160031c01906128bc565b896103c9565b610514905f198601908154905f199060200360031b1c169055565b8e6104e7565b634e487b7160e01b5f52604160045260245ffd5b346101b55760403660031901126101b557610547612010565b61054f612026565b9060018060a01b03165f52600560205260405f209060018060a01b03165f52602052602060ff60405f2054166040519015158152f35b346101b5575f3660031901126101b5576020600854604051908152f35b346101b55760203660031901126101b5576105d56105c1600435612b26565b604051918291602083526020830190611fec565b0390f35b346101b5576101003660031901126101b55761041c6004356105f961263f565b610713610604612652565b6106f361060f612665565b6106d361061a612678565b6106b361062561268b565b9361069361063161269e565b9761063a6126b1565b9b610657610647826129a7565b6001600160a01b03163314612963565b5f90815260096020818152604090922001805467ffffffffffffffff191663ffffffff9d909d169c909c1791901b63ffffffff60201b16178a55565b885463ffffffff60401b191660409190911b63ffffffff60401b16178855565b865463ffffffff60601b191660609190911b63ffffffff60601b16178655565b845463ffffffff60801b191660809190911b63ffffffff60801b16178455565b825463ffffffff60a01b191660a09190911b63ffffffff60a01b16178255565b805463ffffffff60c01b191660c09290921b63ffffffff60c01b16919091179055565b346101b55760803660031901126101b55761074f612010565b610757612026565b90604435606435926001600160401b0384116101b557366023850112156101b55761078f61041c9436906024816004013591016125d4565b9261079b83838361272f565b33612a02565b346101b55760403660031901126101b5576024356004356001600160401b0382116101b557366023830112156101b5578160040135906107e082612628565b926107ee60405194856120e4565b82845260208401906024829460051b820101903682116101b55760248101925b8284106109f65750505050610825610647826129a7565b5f526009602052600460405f2001915190600160401b821161051a57825482845580831061097f575b50915f5260205f20915f905b82821061086357005b80518051906001600160401b03821161051a576108808654612076565b601f8111610944575b50602090601f83116001146108db57926108c1836001959460209487965f926108d0575b50508160011b915f199060031b1c19161790565b87555b0194019101909261085a565b015190508a806108ad565b90601f19831691875f52815f20925f5b81811061092c5750936020936001969387969383889510610914575b505050811b0187556108c4565b01515f1960f88460031b161c19169055898080610907565b929360206001819287860151815501950193016108eb565b61096f90875f5260205f20601f850160051c81019160208610610975575b601f0160051c01906128bc565b86610889565b9091508190610962565b835f528260205f2091820191015b81811061099a575061084e565b806109a760019254612076565b806109b4575b500161098d565b601f811183146109c957505f81555b866109ad565b6109e590825f5283601f60205f20920160051c820191016128bc565b805f525f60208120818355556109c3565b83356001600160401b0381116101b557602091610a1a83926024369187010161260a565b81520193019261080e565b346101b55760403660031901126101b557610a3e612010565b602435908115158092036101b5576001600160a01b0316908115610aad57335f52600560205260405f20825f5260205260405f2060ff1981541660ff83161790556040519081527f17307eab39ab6107e8899845ad3d59bd9653f200f220920489ca2b5937696c3160203392a3005b50630b61174360e31b5f5260045260245ffd5b346101b55760203660031901126101b557604051610add816120c9565b60608152606060208201525f60408201525f606082015260606080820152606060a082015260c060405191610b11836120ae565b610b1961293f565b8352604051610b27816120ae565b5f81525f60208201525f60408201526060808201526020840152610b4961293f565b6040840152604051610b5a816120c9565b5f81525f60208201525f60408201525f60608201525f60808201525f60a08201525f83820152606084015201526004355f52600960205260405f2060405190610ba2826120c9565b610bab81612105565b8252610bb960018201612105565b602083019081526002820154604084019063ffffffff8116825260ff606086019160201c1615158152610bee60038501612105565b906080860191825260048501948554610c0681612628565b96610c1460405198896120e4565b81885260208801905f5260205f205f915b838310610d2a5750610c79898b8a610cae8b8b8b63ffffffff610c8c610c5460058f60a08b019b8c52016121df565b9660c089019788526040519a8b9960208b525160e060208c01526101008b0190611fec565b9051898203601f190160408b0152611fec565b9351166060870152511515608086015251848203601f190160a0860152611fec565b925190601f198385030160c0840152815180855260208501946020808360051b8301019401955f915b838310610cf75786806105d5888851601f198483030160e085015261245c565b919395509193602080610d16600193601f198682030187528a51611fec565b980193019301909287959396949296610cd7565b600160208192610d3985612105565b815201920192019190610c25565b346101b5575f3660031901126101b5576040515f600154610d6781612076565b8084529060018116908115610ded5750600114610d8f575b6105d5836105c1818503826120e4565b60015f9081527fb10e2d527612073b26eecdfd717e6a320cf44b4afac2b0732d9fcbe2b7fa0cf6939250905b808210610dd3575090915081016020016105c1610d7f565b919260018160209254838588010152019101909291610dbb565b60ff191660208086019190915291151560051b840190910191506105c19050610d7f565b346101b5575f3660031901126101b5576007546040516001600160a01b039091168152602090f35b346101b55760c03660031901126101b5576004356001600160401b0381116101b557610e6990369060040161260a565b610e71612026565b906044356001600160401b0381116101b557610e9190369060040161260a565b916064356001600160401b0381116101b557610eb190369060040161260a565b926084356001600160401b0381116101b557610ed19036906004016126c4565b9060a4356001600160401b0381116101b557610ef190369060040161260a565b610ef96129db565b60085460405160209591610f0d87836120e4565b5f82526001600160a01b038316928315611b37575f8281526002895260409020546001600160a01b03168015159081611b06575b855f5260038a5260405f2060018154019055835f5260028a5260405f20866bffffffffffffffffffffffff60a01b8254161790558386827fddf252ad1be2c89b69c2b068fc378daa952ba7f163c4a11628f55a4df523b3ef5f80a450611af3573b6119d5575b505050600854805f526006855260405f20908251916001600160401b03831161051a578692610fd68254612076565b601f81116119a7575b508394601f82116001146119245790807ff8e1a15aba9398e019f0b49df1a4fde98ee17ae345cb5f6b5e2c27f5033e8ce79661102f935f926119195750508160011b915f199060031b1c19161790565b90555b604051908152a160405191611046836120ae565b60058352606484840152600a6040840152603260608401526040519061106b826120ae565b6064825260058583015260016040830152606082015260405161108d816120ae565b606481526005858201526064604082015260056060820152604051916110b2836120c9565b60018352600186840152600160408401526001606084015260016080840152600160a08401525f60c0840152604051946110eb866120ae565b8552858501526040840152606083015260405193611108856120c9565b84528284019081526040840160018152606085015f81526080860196875260a08601926060845260c087019485526008545f526009865260405f2096518051906001600160401b03821161051a576111608954612076565b601f81116118eb575b508790601f83116001146118885761119792915f91836117ec5750508160011b915f199060031b1c19161790565b87555b51805160018801916001600160401b03821161051a576111ba8354612076565b601f811161185a575b508790601f83116001146117f7576111f192915f91836117ec5750508160011b915f199060031b1c19161790565b90555b63ffffffff80600288019351161663ffffffff1983541617825551151564ff00000000825491861b169064ff0000000019161790556003840194519485516001600160401b03811161051a5761124a8254612076565b601f81116117be575b5084601f821160011461175b5781906112859394959697985f926117505750508160011b915f199060031b1c19161790565b90555b5180516004850191600160401b821161051a57849083548385558084106116d5575b5001915f52835f205f925b8284106115c7575050505051906112d08251600585016128d2565b6006830192611343828401519463ffffffff808751161663ffffffff1982541617815561132163ffffffff8588015116829063ffffffff60201b82549160201b169063ffffffff60201b1916179055565b604086810151825463ffffffff60401b1916911b63ffffffff60401b16179055565b6060600782019401518051906001600160401b03821161051a57600160401b821161051a5783908654838855808410611573575b5001945f52825f208160031c915f5b838110611532575060071981169003806114d5575b5050506114ae935063ffffffff916113fd836060600960c0956113c560408a0151600883016128d2565b0196015192818085511616821988541617875583015116859063ffffffff60201b82549160201b169063ffffffff60201b1916179055565b604081810151855463ffffffff60401b191690851690911b63ffffffff60401b16178455606081810151855463ffffffff60601b191690851690911b63ffffffff60601b16178455608081810151855463ffffffff60801b191690851690911b63ffffffff60801b1617845560a081810151855463ffffffff60a01b191690851690911b63ffffffff60a01b161784550151825463ffffffff60c01b1916911660c01b63ffffffff60c01b16179055565b6008545f1981146114c157600101600855005b634e487b7160e01b5f52601160045260245ffd5b955f965f5b8181106114fb5750505001939093556114ae92816113fd63ffffffff61139b565b9091978661152860019263ffffffff8c5116908560021b63ffffffff809160031b9316831b921b19161790565b99019291016114da565b5f5f5b6008811061154a575083820155600101611386565b8951909991600191899163ffffffff60058e901b81811b199092169216901b1792019901611535565b6115a090885f52835f20600780870160031c820192601c8860021b16806115a657500160031c01906128bc565b87611377565b6115c1905f198601908154905f199060200360031b1c169055565b8c6104e7565b80519081516001600160401b03811161051a5787926115e68554612076565b601f81116116a7575b508390601f831160011461163d578260019593869593611623935f926116325750508160011b915f199060031b1c19161790565b85555b019201930192906112b5565b015190508d806108ad565b93929190601f19821690865f52845f20915f5b81811061168f575091839160019788979695889510611677575b505050811b018555611626565b01515f1960f88460031b161c191690558c808061166a565b8783015184558c966001909401939283019201611650565b6116cf90865f52855f20601f850160051c81019187861061097557601f0160051c01906128bc565b8a6115ef565b845f5283835f2091820191015b8181106116ef57506112aa565b6001919293506116ff8154612076565b80611710575b5001908692916116e2565b601f8111831461172557505f81555b89611705565b61174090825f5283601f8b5f20920160051c820191016128bc565b805f525f8881208183555561171f565b0151905088806108ad565b601f19821690835f52865f20915f5b8181106117a757509883600195969798999a1061178f575b505050811b019055611288565b01515f1960f88460031b161c19169055878080611782565b91928860018192868e01518155019401920161176a565b6117e690835f52865f20601f840160051c81019188851061097557601f0160051c01906128bc565b87611253565b015190508b806108ad565b90601f19831691845f52895f20925f5b8b82821061184457505090846001959493921061182c575b505050811b0190556111f4565b01515f1960f88460031b161c191690558a808061181f565b6001859682939686015181550195019301611807565b61188290845f52895f20601f850160051c8101918b861061097557601f0160051c01906128bc565b8a6111c3565b90601f198316918a5f52895f20925f5b8b8282106118d55750509084600195949392106118bd575b505050811b01875561119a565b01515f1960f88460031b161c191690558a80806118b0565b6001859682939686015181550195019301611898565b611913908a5f52895f20601f850160051c8101918b861061097557601f0160051c01906128bc565b8a611169565b015190508c806108ad565b601f19821690835f52855f20915f5b81811061198f5750968392916001947ff8e1a15aba9398e019f0b49df1a4fde98ee17ae345cb5f6b5e2c27f5033e8ce79910611977575b505050811b019055611032565b01515f1960f88460031b161c191690558b808061196a565b888301518455978701978b9760019094019301611933565b6119cf90835f52855f20601f840160051c81019187851061097557601f0160051c01906128bc565b8a610fdf565b95611a169181989695949399976040519384928392630a85bd0160e11b84523360048501525f60248501526044840152608060648401526084830190611fec565b03815f8c5af15f9181611ab3575b50611a795787873d15611a71573d90611a3c826125b9565b91611a4a60405193846120e4565b82523d5f8284013e5b81519182611a6e5783633250574960e11b5f5260045260245ffd5b01fd5b606090611a53565b630a85bd0160e198929394959796981b9063ffffffff60e01b1603611aa15750868080610fa7565b633250574960e11b5f5260045260245ffd5b9091508781813d8311611aec575b611acb81836120e4565b810103126101b557516001600160e01b0319811681036101b5579089611a24565b503d611ac1565b6339e3563760e11b5f525f60045260245ffd5b5f8481526004602052604080822080546001600160a01b031916905582825260038c52902080545f19019055610f41565b633250574960e11b5f525f60045260245ffd5b346101b55760203660031901126101b557611b636129db565b6004355f908152600960205260409020600201805464ff000000001916640100000000179055005b346101b55760203660031901126101b5576004355f526009602052611c0260405f206105d5611bb982612105565b91611c35611bc960018301612105565b9160028101549060ff611c10611bed6005611be660038601612105565b94016121df565b95604051998a9960c08b5260c08b0190611fec565b9089820360208b0152611fec565b9263ffffffff8116604089015260201c16151560608701528582036080870152611fec565b9083820360a085015261245c565b346101b5575f3660031901126101b557611c5b6129db565b600780546001600160a01b031981169091555f906001600160a01b03167f8be0079c531659141344cd1fd0a4f28419497f9722a3daafe3b4186f6b6457e08280a3005b346101b55760203660031901126101b5576001600160a01b03611cbf612010565b168015611cdc575f526003602052602060405f2054604051908152f35b6322718ad960e21b5f525f60045260245ffd5b346101b55760203660031901126101b5576020611d0d6004356129a7565b6040516001600160a01b039091168152f35b346101b55761041c611d303661203c565b9060405192611d406020856120e4565b5f845261079b83838361272f565b346101b55760203660031901126101b557611d676129db565b6004355f908152600960205260409020600201805464ff0000000019169055005b346101b55761041c611d993661203c565b9161272f565b346101b55760403660031901126101b557611db8612010565b602435611dc4816129a7565b33151580611e76575b80611e49575b611e365781906001600160a01b0384811691167f8c5be1e5ebec7d5bd14f71427d1e84f3dd0314c0f7b2291e5b200ac8c7c3b9255f80a45f90815260046020526040902080546001600160a01b0319166001600160a01b03909216919091179055005b63a9fbf51f60e01b5f523360045260245ffd5b506001600160a01b0381165f90815260056020908152604080832033845290915290205460ff1615611dd3565b506001600160a01b038116331415611dcd565b346101b55760203660031901126101b557600435611ea6816129a7565b505f526004602052602060018060a01b0360405f205416604051908152f35b346101b5575f3660031901126101b5576040515f5f54611ee481612076565b8084529060018116908115610ded5750600114611f0b576105d5836105c1818503826120e4565b5f8080527f290decd9548b62a8d60345a988386fc84ba6bc95484008f6362f93160ef3e563939250905b808210611f4d575090915081016020016105c1610d7f565b919260018160209254838588010152019101909291611f35565b346101b55760203660031901126101b5576004359063ffffffff60e01b82168092036101b557602091632483248360e11b8114908115611fa9575b5015158152f35b6380ac58cd60e01b811491508115611fdb575b8115611fca575b5083611fa2565b6301ffc9a760e01b14905083611fc3565b635b5e139f60e01b81149150611fbc565b805180835260209291819084018484015e5f828201840152601f01601f1916010190565b600435906001600160a01b03821682036101b557565b602435906001600160a01b03821682036101b557565b60609060031901126101b5576004356001600160a01b03811681036101b557906024356001600160a01b03811681036101b5579060443590565b90600182811c921680156120a4575b602083101461209057565b634e487b7160e01b5f52602260045260245ffd5b91607f1691612085565b608081019081106001600160401b0382111761051a57604052565b60e081019081106001600160401b0382111761051a57604052565b90601f801991011681019081106001600160401b0382111761051a57604052565b9060405191825f82549261211884612076565b8084529360018116908115612183575060011461213f575b5061213d925003836120e4565b565b90505f9291925260205f20905f915b81831061216757505090602061213d928201015f612130565b602091935080600191548385890101520191019091849261214e565b90506020925061213d94915060ff191682840152151560051b8201015f612130565b906040516121b2816120ae565b606063ffffffff8294548181168452818160201c166020850152818160401c166040850152821c16910152565b604051916121ec836120ae565b82916121f7816121a5565b845260405193612206856120ae565b63ffffffff60018301548181168752818160201c16602088015260401c166040860152600282019460405180602088549182815201975f5260205f20905f915b8160078401106123db57986122a5928492606098999a9b54918181106123c4575b8181106123ab575b818110612391575b818110612378575b81811061235e575b818110612344575b81811061232a575b1061231c575b5003826120e4565b8382015260208201526122ba600384016121a5565b604082015263ffffffff6004604051946122d3866120c9565b01548181168552818160201c166020860152818160401c1660408601528181851c1684860152818160801c166080860152818160a01c1660a086015260c01c1660c08401520152565b60e01c81526020015f61229d565b92602060019163ffffffff8560c01c168152019301612297565b92602060019163ffffffff8560a01c16815201930161228f565b92602060019163ffffffff8560801c168152019301612287565b92602060019163ffffffff858d1c16815201930161227f565b92602060019163ffffffff8560401c168152019301612277565b92602060019163ffffffff85831c16815201930161226f565b92602060019163ffffffff85168152019301612267565b9860016101006008928c5463ffffffff8116825263ffffffff8160201c16602083015263ffffffff8160401c16604083015263ffffffff8160601c16606083015263ffffffff8160801c16608083015263ffffffff8160a01c1660a083015263ffffffff8160c01c1660c083015260e01c60e0820152019a01920191612246565b9061249281835163ffffffff60608092828151168552826020820151166020860152826040820151166040860152015116910152565b6020820151916102006080830152606061028083019363ffffffff81511661020085015263ffffffff60208201511661022085015263ffffffff6040820151166102408501520151926080610260840152835180915260206102a084019401905f5b81811061259d5750505063ffffffff60c060608361254760406101e096015160a088019063ffffffff60608092828151168552826020820151166020860152826040820151166040860152015116910152565b015182815116610120860152826020820151166101408601528260408201511661016086015282606082015116610180860152826080820151166101a08601528260a0820151166101c086015201511691015290565b825163ffffffff168652602095860195909201916001016124f4565b6001600160401b03811161051a57601f01601f191660200190565b9291926125e0826125b9565b916125ee60405193846120e4565b8294818452818301116101b5578281602093845f960137010152565b9080601f830112156101b557816020612625933591016125d4565b90565b6001600160401b03811161051a5760051b60200190565b6024359063ffffffff821682036101b557565b6044359063ffffffff821682036101b557565b6064359063ffffffff821682036101b557565b6084359063ffffffff821682036101b557565b60a4359063ffffffff821682036101b557565b60c4359063ffffffff821682036101b557565b60e4359063ffffffff821682036101b557565b9080601f830112156101b5578135906126dc82612628565b926126ea60405194856120e4565b82845260208085019360051b8201019182116101b557602001915b8183106127125750505090565b823563ffffffff811681036101b557815260209283019201612705565b6001600160a01b0390911691908215611b37575f828152600260205260409020546001600160a01b031692829033151580612827575b50846127f4575b805f52600360205260405f2060018154019055815f52600260205260405f20816bffffffffffffffffffffffff60a01b825416179055847fddf252ad1be2c89b69c2b068fc378daa952ba7f163c4a11628f55a4df523b3ef5f80a46001600160a01b03168083036127dc57505050565b6364283d7b60e01b5f5260045260245260445260645ffd5b5f82815260046020526040902080546001600160a01b0319169055845f52600360205260405f205f19815401905561276c565b9091508061286b575b1561283d5782905f612765565b828461285557637e27328960e01b5f5260045260245ffd5b63177e802f60e01b5f523360045260245260445ffd5b50338414801561289a575b8061283057505f838152600460205260409020546001600160a01b03163314612830565b505f84815260056020908152604080832033845290915290205460ff16612876565b8181106128c7575050565b5f81556001016128bc565b8151815460208085015160408087015163ffffffff60401b911b166bffffffffffffffffffffffff1990931663ffffffff9485161763ffffffff60201b9190921b161717825561213d9260600151825463ffffffff60601b1916911660601b63ffffffff60601b16179055565b6040519061294c826120ae565b5f6060838281528260208201528260408201520152565b1561296a57565b60405162461bcd60e51b81526020600482015260156024820152744f6e6c79206f776e65722063616e2075706461746560581b6044820152606490fd5b5f818152600260205260409020546001600160a01b03169081156129c9575090565b637e27328960e01b5f5260045260245ffd5b6007546001600160a01b031633036129ef57565b63118cdaa760e01b5f523360045260245ffd5b823b612a10575b5050505050565b604051630a85bd0160e11b81526001600160a01b039182166004820152918116602483015260448201939093526080606482015291169160209082908190612a5c906084830190611fec565b03815f865af15f9181612ae1575b50612abf57503d15612ab8573d612a80816125b9565b90612a8e60405192836120e4565b81523d5f602083013e5b80519081612ab35782633250574960e11b5f5260045260245ffd5b602001fd5b6060612a98565b6001600160e01b03191663757a42ff60e11b01611aa157505f80808080612a09565b9091506020813d602011612b1e575b81612afd602093836120e4565b810103126101b557516001600160e01b0319811681036101b557905f612a6a565b3d9150612af0565b612b2f816129a7565b505f526006602052612b4360405f20612105565b5f604051612b526020826120e4565b529056fea2646970667358221220a5494311ad2b4c84caabf655e3f2b1863e674355dc90d13d5f5099aa3de79ca364736f6c634300081e0033","linkReferences":{}},"methodIdentifiers":{"approve(address,uint256)":"095ea7b3","balanceOf(address)":"70a08231","banHero(uint256)":"822cb6a4","getApproved(uint256)":"081812fc","getHeroData(uint256)":"9e94af5a","heroData(uint256)":"73b31190","isApprovedForAll(address,address)":"e985e9c5","mintHero(string,address,string,string,uint32[],string)":"8b8f6e2c","name()":"06fdde03","owner()":"8da5cb5b","ownerOf(uint256)":"6352211e","renounceOwnership()":"715018a6","safeTransferFrom(address,address,uint256)":"42842e0e","safeTransferFrom(address,address,uint256,bytes)":"b88d4fde","setApprovalForAll(address,bool)":"a22cb465","supportsInterface(bytes4)":"01ffc9a7","symbol()":"95d89b41","tokenCounter()":"d082e381","tokenURI(uint256)":"c87b56dd","transferFrom(address,address,uint256)":"23b872dd","transferOwnership(address)":"f2fde38b","unbanHero(uint256)":"41441b02","updateHeroItems(uint256,string[])":"a7471c7c","updateHeroMainStats(uint256,uint32,uint32,uint32,uint32,uint32,uint32,uint32)":"b9a178b5","updateHeroStats(uint256,uint32,uint32,uint32,uint32,uint32,uint32,uint32,uint32,uint32[],uint32,uint32,uint32,uint32)":"f1e17d28"},"id":54}