{
    "abi": [
        {
            "type": "constructor",
            "inputs": [
                {
                    "name": "_interval",
                    "type": "uint256",
                    "internalType": "uint256"
                }
            ],
            "stateMutability": "nonpayable"
        },
        {
            "type": "function",
            "name": "checkUpkeep",
            "inputs": [
                {
                    "name": "",
                    "type": "bytes",
                    "internalType": "bytes"
                }
            ],
            "outputs": [
                {
                    "name": "upkeepNeeded",
                    "type": "bool",
                    "internalType": "bool"
                },
                {
                    "name": "performData",
                    "type": "bytes",
                    "internalType": "bytes"
                }
            ],
            "stateMutability": "view"
        },
        {
            "type": "function",
            "name": "interval",
            "inputs": [],
            "outputs": [
                {
                    "name": "",
                    "type": "uint256",
                    "internalType": "uint256"
                }
            ],
            "stateMutability": "view"
        },
        {
            "type": "function",
            "name": "lastTimestamp",
            "inputs": [],
            "outputs": [
                {
                    "name": "",
                    "type": "uint256",
                    "internalType": "uint256"
                }
            ],
            "stateMutability": "view"
        },
        {
            "type": "function",
            "name": "performUpkeep",
            "inputs": [
                {
                    "name": "",
                    "type": "bytes",
                    "internalType": "bytes"
                }
            ],
            "outputs": [],
            "stateMutability": "nonpayable"
        },
        {
            "type": "function",
            "name": "shopRefreshCounter",
            "inputs": [],
            "outputs": [
                {
                    "name": "",
                    "type": "uint256",
                    "internalType": "uint256"
                }
            ],
            "stateMutability": "view"
        }
    ],
    "bytecode": {
        "object": "0x608034605557601f61028538819003918201601f19168301916001600160401b0383118484101760595780849260209460405283398101031260555751600155425f555f600255604051610217908161006e8239f35b5f80fd5b634e487b7160e01b5f52604160045260245ffdfe6080806040526004361015610012575f80fd5b5f3560e01c90816319d8ac611461016a575080634585e33b1461011b5780636e04ff0d14610091578063947a36fb146100745763e88844dc14610053575f80fd5b34610070575f366003190112610070576020600254604051908152f35b5f80fd5b34610070575f366003190112610070576020600154604051908152f35b346100705761009f36610183565b50506100ac5f54426101d4565b6001541060405190602082019082821067ffffffffffffffff83111761010757816060926040525f84526040519384928352604060208401525180918160408501528484015e5f828201840152601f01601f19168101030190f35b634e487b7160e01b5f52604160045260245ffd5b346100705761012936610183565b50506101365f54426101d4565b6001541061014057005b425f556002546001810180911161015657600255005b634e487b7160e01b5f52601160045260245ffd5b34610070575f366003190112610070576020905f548152f35b9060206003198301126100705760043567ffffffffffffffff811161007057826023820112156100705780600401359267ffffffffffffffff84116100705760248483010111610070576024019190565b919082039182116101565756fea2646970667358221220d995286e8bf050a51639c8e004c3f6a3ed9bd36e74c1124222587f06f966a64964736f6c634300081e0033",
        "linkReferences": {}
    },
    "methodIdentifiers": {
        "checkUpkeep(bytes)": "6e04ff0d",
        "interval()": "947a36fb",
        "lastTimestamp()": "19d8ac61",
        "performUpkeep(bytes)": "4585e33b",
        "shopRefreshCounter()": "e88844dc"
    },
    "id": 67
}