{
    "abi": [
        {
            "type": "constructor",
            "inputs": [
                {
                    "name": "coordinator",
                    "type": "address",
                    "internalType": "address"
                },
                {
                    "name": "subscriptionId",
                    "type": "uint256",
                    "internalType": "uint256"
                },
                {
                    "name": "_keyHash",
                    "type": "bytes32",
                    "internalType": "bytes32"
                }
            ],
            "stateMutability": "nonpayable"
        },
        {
            "type": "function",
            "name": "acceptOwnership",
            "inputs": [],
            "outputs": [],
            "stateMutability": "nonpayable"
        },
        {
            "type": "function",
            "name": "callbackGasLimit",
            "inputs": [],
            "outputs": [
                {
                    "name": "",
                    "type": "uint32",
                    "internalType": "uint32"
                }
            ],
            "stateMutability": "view"
        },
        {
            "type": "function",
            "name": "extraArgs",
            "inputs": [],
            "outputs": [
                {
                    "name": "nativePayment",
                    "type": "bool",
                    "internalType": "bool"
                }
            ],
            "stateMutability": "view"
        },
        {
            "type": "function",
            "name": "keyHash",
            "inputs": [],
            "outputs": [
                {
                    "name": "",
                    "type": "bytes32",
                    "internalType": "bytes32"
                }
            ],
            "stateMutability": "view"
        },
        {
            "type": "function",
            "name": "numWords",
            "inputs": [],
            "outputs": [
                {
                    "name": "",
                    "type": "uint32",
                    "internalType": "uint32"
                }
            ],
            "stateMutability": "view"
        },
        {
            "type": "function",
            "name": "owner",
            "inputs": [],
            "outputs": [
                {
                    "name": "",
                    "type": "address",
                    "internalType": "address"
                }
            ],
            "stateMutability": "view"
        },
        {
            "type": "function",
            "name": "ranges",
            "inputs": [
                {
                    "name": "",
                    "type": "uint256",
                    "internalType": "uint256"
                }
            ],
            "outputs": [
                {
                    "name": "min",
                    "type": "uint32",
                    "internalType": "uint32"
                },
                {
                    "name": "max",
                    "type": "uint32",
                    "internalType": "uint32"
                }
            ],
            "stateMutability": "view"
        },
        {
            "type": "function",
            "name": "rawFulfillRandomWords",
            "inputs": [
                {
                    "name": "requestId",
                    "type": "uint256",
                    "internalType": "uint256"
                },
                {
                    "name": "randomWords",
                    "type": "uint256[]",
                    "internalType": "uint256[]"
                }
            ],
            "outputs": [],
            "stateMutability": "nonpayable"
        },
        {
            "type": "function",
            "name": "requestConfirmations",
            "inputs": [],
            "outputs": [
                {
                    "name": "",
                    "type": "uint16",
                    "internalType": "uint16"
                }
            ],
            "stateMutability": "view"
        },
        {
            "type": "function",
            "name": "requestRandom",
            "inputs": [
                {
                    "name": "min",
                    "type": "uint32",
                    "internalType": "uint32"
                },
                {
                    "name": "max",
                    "type": "uint32",
                    "internalType": "uint32"
                }
            ],
            "outputs": [
                {
                    "name": "requestId",
                    "type": "uint256",
                    "internalType": "uint256"
                }
            ],
            "stateMutability": "nonpayable"
        },
        {
            "type": "function",
            "name": "s_subscriptionId",
            "inputs": [],
            "outputs": [
                {
                    "name": "",
                    "type": "uint256",
                    "internalType": "uint256"
                }
            ],
            "stateMutability": "view"
        },
        {
            "type": "function",
            "name": "s_vrfCoordinator",
            "inputs": [],
            "outputs": [
                {
                    "name": "",
                    "type": "address",
                    "internalType": "contract IVRFCoordinatorV2Plus"
                }
            ],
            "stateMutability": "view"
        },
        {
            "type": "function",
            "name": "setCoordinator",
            "inputs": [
                {
                    "name": "_vrfCoordinator",
                    "type": "address",
                    "internalType": "address"
                }
            ],
            "outputs": [],
            "stateMutability": "nonpayable"
        },
        {
            "type": "function",
            "name": "testFulfillRandom",
            "inputs": [
                {
                    "name": "requestId",
                    "type": "uint256",
                    "internalType": "uint256"
                },
                {
                    "name": "words",
                    "type": "uint256[]",
                    "internalType": "uint256[]"
                }
            ],
            "outputs": [],
            "stateMutability": "nonpayable"
        },
        {
            "type": "function",
            "name": "transferOwnership",
            "inputs": [
                {
                    "name": "to",
                    "type": "address",
                    "internalType": "address"
                }
            ],
            "outputs": [],
            "stateMutability": "nonpayable"
        },
        {
            "type": "event",
            "name": "CoordinatorSet",
            "inputs": [
                {
                    "name": "vrfCoordinator",
                    "type": "address",
                    "indexed": false,
                    "internalType": "address"
                }
            ],
            "anonymous": false
        },
        {
            "type": "event",
            "name": "OwnershipTransferRequested",
            "inputs": [
                {
                    "name": "from",
                    "type": "address",
                    "indexed": true,
                    "internalType": "address"
                },
                {
                    "name": "to",
                    "type": "address",
                    "indexed": true,
                    "internalType": "address"
                }
            ],
            "anonymous": false
        },
        {
            "type": "event",
            "name": "OwnershipTransferred",
            "inputs": [
                {
                    "name": "from",
                    "type": "address",
                    "indexed": true,
                    "internalType": "address"
                },
                {
                    "name": "to",
                    "type": "address",
                    "indexed": true,
                    "internalType": "address"
                }
            ],
            "anonymous": false
        },
        {
            "type": "event",
            "name": "RandomGenerated",
            "inputs": [
                {
                    "name": "result",
                    "type": "uint32",
                    "indexed": false,
                    "internalType": "uint32"
                }
            ],
            "anonymous": false
        },
        {
            "type": "error",
            "name": "OnlyCoordinatorCanFulfill",
            "inputs": [
                {
                    "name": "have",
                    "type": "address",
                    "internalType": "address"
                },
                {
                    "name": "want",
                    "type": "address",
                    "internalType": "address"
                }
            ]
        },
        {
            "type": "error",
            "name": "OnlyOwnerOrCoordinator",
            "inputs": [
                {
                    "name": "have",
                    "type": "address",
                    "internalType": "address"
                },
                {
                    "name": "owner",
                    "type": "address",
                    "internalType": "address"
                },
                {
                    "name": "coordinator",
                    "type": "address",
                    "internalType": "address"
                }
            ]
        },
        {
            "type": "error",
            "name": "ZeroAddress",
            "inputs": []
        }
    ],
    "bytecode": {
        "object": "0x60806040523461015557604051601f610a8638819003918201601f19168301916001600160401b038311848410176100ed578084926060946040528339810103126101555780516001600160a01b03811691908290036101555760406020820151910151913315610110575f80546001600160a01b03191633179055801561010157600280546001600160a01b031916919091179055600680546001600160501b03191666010003000186a017905560045560055560405160208101908082106001600160401b038311176100ed575f916040525260ff196003541660035560405161092c908161015a8239f35b634e487b7160e01b5f52604160045260245ffd5b63d92e233d60e01b5f5260045ffd5b60405162461bcd60e51b815260206004820152601860248201527f43616e6e6f7420736574206f776e657220746f207a65726f00000000000000006044820152606490fd5b5f80fdfe60806040526004361015610011575f80fd5b5f3560e01c80631fe543e31461071857806324f74697146106f557806356f41693146106d35780635fdecdfa1461069a57806361728f391461067d57806379ba5097146105d25780637ccfd7fc146105ac5780638ac000211461058f5780638da5cb5b146105685780638ea981171461048e5780639eccacf614610466578063b0fb162f14610443578063cb9439bd146101d6578063f2fde38b146100db5763fac65344146100be575f80fd5b346100d7576100d56100cf3661075f565b916107f4565b005b5f80fd5b346100d75760203660031901126100d7576004356001600160a01b038116908190036100d7575f546001600160a01b0316338190036101985733821461015357600180546001600160a01b031916831790557fed8889f560326eb138920d842192f0eb3dd22b4f139c87a2c57538e05bae12785f80a3005b60405162461bcd60e51b815260206004820152601760248201527f43616e6e6f74207472616e7366657220746f2073656c660000000000000000006044820152606490fd5b60405162461bcd60e51b815260206004820152601660248201527527b7363c9031b0b63630b1363290313c9037bbb732b960511b6044820152606490fd5b346100d75760403660031901126100d75760043563ffffffff81168091036100d75760243563ffffffff81168091036100d75780821161040e576002546005546004546006546040519095936001600160a01b031692906020810167ffffffffffffffff8111828210176103fa5760405260ff60035416151581526040519063125fa26760e31b60208301525115156024820152602481526102796044826107d2565b6040519160c0830183811067ffffffffffffffff8211176103fa5760405282526020820192835260408201968060201c61ffff1688526060830163ffffffff82168152608084019160301c63ffffffff16825260a084019283526040519889958695634d8e1c2f60e11b875260048701602090525160248701525160448601525161ffff1660648501525163ffffffff1660848401525163ffffffff1660a48301525160c4820160c09052805180918160e485015260200161010484015e808201610104015f9052601f1990601f011681010361010401815a6020945f91f19182156103ef575f926103ba575b6020935060405191610377836107b6565b8252838201908152825f526007845263ffffffff60405f2092511667ffffffff0000000083549251861b169167ffffffffffffffff191617179055604051908152f35b91506020833d6020116103e7575b816103d5602093836107d2565b810103126100d7576020925191610366565b3d91506103c8565b6040513d5f823e3d90fd5b634e487b7160e01b5f52604160045260245ffd5b60405162461bcd60e51b815260206004820152600d60248201526c496e76616c69642072616e676560981b6044820152606490fd5b346100d7575f3660031901126100d757602061ffff600654821c16604051908152f35b346100d7575f3660031901126100d7576002546040516001600160a01b039091168152602090f35b346100d75760203660031901126100d7576004356001600160a01b038116908190036100d7575f546001600160a01b03163381141580610553575b6105295750801561051a576020817fd1a6a14209a385a964d036e404cb5cfb71f4000cdb03c9366292430787261be6926bffffffffffffffffffffffff60a01b6002541617600255604051908152a1005b63d92e233d60e01b5f5260045ffd5b60025463061db9c160e01b5f908152336004526024929092526001600160a01b0316604452606490fd5b506002546001600160a01b03163314156104c9565b346100d7575f3660031901126100d7575f546040516001600160a01b039091168152602090f35b346100d7575f3660031901126100d7576020600454604051908152f35b346100d7575f3660031901126100d757602063ffffffff60065460301c16604051908152f35b346100d7575f3660031901126100d7576001546001600160a01b038116330361063f575f80546001600160a01b031980821633908117845593166001556001600160a01b0316907f8be0079c531659141344cd1fd0a4f28419497f9722a3daafe3b4186f6b6457e09080a3005b60405162461bcd60e51b815260206004820152601660248201527526bab9ba10313290383937b837b9b2b21037bbb732b960511b6044820152606490fd5b346100d7575f3660031901126100d7576020600554604051908152f35b346100d75760203660031901126100d7576004355f5260076020526040805f205463ffffffff825191818116835260201c166020820152f35b346100d7575f3660031901126100d757602060ff600354166040519015158152f35b346100d7575f3660031901126100d757602063ffffffff60065416604051908152f35b346100d7576107263661075f565b6002546001600160a01b03169290919033849003610748576100d593506107f4565b8363073e64fd60e21b5f523360045260245260445ffd5b60406003198201126100d7576004359160243567ffffffffffffffff81116100d757826023820112156100d75780600401359267ffffffffffffffff84116100d75760248460051b830101116100d7576024019190565b6040810190811067ffffffffffffffff8211176103fa57604052565b90601f8019910116810190811067ffffffffffffffff8211176103fa57604052565b9190915f52600760205260405f209060405191610810836107b6565b549063ffffffff8216835263ffffffff602084019260201c168252156108e25763ffffffff90511663ffffffff825116900363ffffffff81116108ba5763ffffffff600191160163ffffffff81116108ba5763ffffffff1680156108ce5763ffffffff80925116923506160163ffffffff81116108ba5760207f7e8afb9f7328748c9e8e7d566c7311f017542de03b80f951cb8a1c1b1510b24f9163ffffffff60405191168152a1565b634e487b7160e01b5f52601160045260245ffd5b634e487b7160e01b5f52601260045260245ffd5b634e487b7160e01b5f52603260045260245ffdfea2646970667358221220ad2b85c38801f89bfb40d00c442fc161eac84d4d4e838f3bff0142ab02fe6bfd64736f6c634300081e0033",
        "linkReferences": {}
    },
    "methodIdentifiers": {
        "acceptOwnership()": "79ba5097",
        "callbackGasLimit()": "24f74697",
        "extraArgs()": "56f41693",
        "keyHash()": "61728f39",
        "numWords()": "7ccfd7fc",
        "owner()": "8da5cb5b",
        "ranges(uint256)": "5fdecdfa",
        "rawFulfillRandomWords(uint256,uint256[])": "1fe543e3",
        "requestConfirmations()": "b0fb162f",
        "requestRandom(uint32,uint32)": "cb9439bd",
        "s_subscriptionId()": "8ac00021",
        "s_vrfCoordinator()": "9eccacf6",
        "setCoordinator(address)": "8ea98117",
        "testFulfillRandom(uint256,uint256[])": "fac65344",
        "transferOwnership(address)": "f2fde38b"
    },
    "id": 27
}